:100000000C9434000C9449000C9449000C94490061
:100010000C9449000C9449000C9449000C9449003C
:100020000C9449000C9449000C9449000C9449002C
:100030000C9449000C9449000C9449000C9449001C
:100040000C9449000C9449000C9449000C9449000C
:100050000C9449000C9449000C9449000C944900FC
:100060000C9449000C94490011241FBECFEFD4E03A
:10007000DEBFCDBF11E0A0E0B1E0E6ECF7E002C0EA
:1000800005900D92A830B107D9F70E94E2000C94B8
:10009000E1030C9400008093BB0084E88093BC00D3
:1000A0008091BC0087FFFCCF08958093BB0084EC57
:1000B0008093BC008091BC0087FFFCCF0895CF9255
:1000C000DF92EF92FF920F931F93CF93DF93C82F8E
:1000D000062F142FD52F84E48093BC008091BC00A0
:1000E00087FFFCCF8091BB008C2F0E945500802F92
:1000F0000E945500E12EFD2E10E000E00C2E000CB9
:10010000DD0B6E0181E0C81AD1080C171D0774F4CD
:10011000F70181917F01C016D10629F40E944B009E
:100120000F5F1F4FF2CF0E945500FACF80E88093F7
:10013000BC00DF91CF911F910F91FF90EF90DF9066
:10014000CF9008959091C00095FFFCCF8093C6009A
:1001500008950F931F93CF93DF93EC018C01085305
:100160001F4F8991882329F00E94A200C017D10750
:10017000C1F7DF91CF911F910F91089530E020E0FA
:100180004091C00047FD0BC02F5F3F4FA895213421
:100190004FE13407ACF3019789F780E0089581E0DF
:1001A000089530E020E042EB55E046BD55BDA89BE8
:1001B000FECFA89A15BCA8952F5F3F4F82179307D3
:1001C000A1F70895CF93DF93CDB7DEB76D970FB644
:1001D000F894DEBF0FBECDBF84B7A89584B7877FE4
:1001E00084BF8091600088618093600010926000FD
:1001F00082E08093BA0080917C00806480937C00D0
:1002000085B78F7E85BF8AB18B778AB98BB18468B9
:100210008BB926982E9A83E084B985B78F7E85BFE7
:1002200084B18B7784B987B1887F87B98AB18778A1
:100230008AB985B1846885B988B1876088B98BB17E
:1002400088678BB9609166008DEF91E00E9478031A
:10025000499BFECF85E090E00E94D1008EEF91E0B7
:100260000E947003182F80EF810F803E40F48FEFC3
:1002700091E00E947003181302C010936600109260
:10028000C1001092C50080E18093C40082E0809399
:10029000C00088E18093C10086E08093C20019828B
:1002A0004A9B02C01E9989B14A9906C01E9904C092
:1002B0004F9B02C081E089834A9906C01E9B04C0FF
:1002C0004F9902C082E089834A9B06C01E9904C0F0
:1002D0004F9902C083E089838E010F5F1F4FA801F1
:1002E00061E581E00E945F0081E090E00E94D10022
:1002F00084E48093BC008091BC0087FFFCCF809198
:10030000BB0080E00E94550086E50E944B0084E817
:100310008093BC008091BC0081648093BC0084E425
:100320008093BC008091BC0087FFFCCF8091BB0014
:1003300084E88093BC008091BC0087FFFCCF809153
:10034000BB00813009F08FC080E88093BC0088E159
:1003500099E00FB6F894A895809360000FBE909333
:1003600060008CEF91E00E94700381110BC08BEF55
:1003700091E00E947003811105C06FEF8CEF91E056
:100380000E947803D12CF12CE12C2EE9C22E32E60A
:10039000B32EAA24AA9443E0942EC701D11011C011
:1003A000009779F48CEF91E00E947003E82E8BEFB8
:1003B00091E00E947003F12CFE2CEE248E0D9F2DF7
:1003C000911D9C01369527957C01F694E794F6944F
:1003D000E794AC01A3E056954795AA95E1F7E4268A
:1003E000F526E826F926B5E096958795BA95E1F7C2
:1003F000E826F926FF24E694F794EE24E22AF32A6D
:10040000D3942FEFD21212C06F2D8CEF91E00E9487
:1004100078036E2D8BEF91E00E94780385B1982FC1
:100420009270D92E81FF19C02998D12CC701880F4D
:10043000991FE982FA828B839C83A80161E084E0A2
:100440000E945F00C0928500B0928400A6BA90928C
:100450008100B09904C0A895FCCF299AE7CFB09A43
:10046000109281009ACF80E88093BC0080E091E0F8
:100470000E94A900B12CA12CE7E0E98F1A8E1B8EF7
:100480001C8E47E3642E712C212C312C54E4552E04
:1004900064E8462E1D861E861F86188A198A1A8AC7
:1004A0001B8A1C8A8091C00087FD02C0A895FACFE4
:1004B0008091C60090ED980F9A30A0F78D87AE011D
:1004C000435F5F4F64E088E00E945F0088E090E057
:1004D0000E94BE008823D1F38091C6008D3019F0B0
:1004E0008A3009F0BAC081E090E00E94BE0081111C
:1004F0008091C6005092BC008091BC0087FFFCCF69
:100500008091BB0080E00E94550089E40E944B006E
:100510004092BC005092BC008091BC0087FFFCCF91
:100520008091BB00C12CD12C760190E080E083301B
:10053000910509F0A6C04092BC002091BC0027FFA5
:10054000FCCF2091BB00C20ED11CE11CF11C019616
:100550008430910561F720E82093BC0081E0A81663
:10056000B10409F4A0C092E0A916B10409F4A4C032
:100570008FE30E94A20036011701EFEFAE1ABE0A08
:10058000F3E0AF16B10409F085CFB301C101298DA5
:100590003A8D4B8D5C8D0E94A8035B016C0157FF67
:1005A0008DC050954095309521953F4F4F4F5F4FEF
:1005B0008DE28D8FCA01B90118012AE0422E512C1B
:1005C000612C712CA30192010E948603605DF101F0
:1005D00061931F017F01E01AF10AB901CA01611597
:1005E00071058105910571F7F801EE0DFF1D10826F
:1005F000FD8DFD3219F48DE20E94A20081E090E0B1
:100600008C0F9D1FE80EF91EF70182917F010E9459
:10061000A2000E151F05C1F780E20E94A20084E02F
:1006200091E00E94A9008114910409F44AC0AAE053
:10063000B0E09501A6010E94C703298D3A8D4B8D2C
:100640005C8D0E94A8035B016C01F1E08F1A910898
:1006500080E3820F0E94A200E6CF90ED980F9A30BF
:1006600008F034CF9B899C8B9A899B8B99899A8BB4
:100670009889998B9F85988B9E859F879D859E875E
:100680001DCFF4ECF093BC002091BC0027FFFCCF01
:100690002091BB00C20ED11CE11CF11CFE2CED2CE4
:1006A000DC2CCC2454CF80E091E00E94A900C98EBC
:1006B000DA8EEB8EFC8E61CF46015FCF9BE29D8F81
:1006C00079CF81E091E00E94A90088E199E00FB61E
:1006D000F894A895809360000FBE90936000FFCFC0
:1006E000F999FECF92BD81BDF89A992780B50895FA
:1006F000262FF999FECF1FBA92BD81BD20BD0FB63E
:10070000F894FA9AF99A0FBE01960895A1E21A2E6A
:10071000AA1BBB1BFD010DC0AA1FBB1FEE1FFF1FA5
:10072000A217B307E407F50720F0A21BB30BE40BF5
:10073000F50B661F771F881F991F1A9469F760953C
:100740007095809590959B01AC01BD01CF010895F6
:10075000052E97FB1EF400940E94BF0357FD07D09F
:100760000E94860307FC03D04EF40C94BF035095FF
:100770004095309521953F4F4F4F5F4F089590958D
:100780008095709561957F4F8F4F9F4F08950E9480
:10079000D203A59F900DB49F900DA49F800D911D35
:1007A00011240895A29FB001B39FC001A39F700DB3
:1007B000811D1124911DB29F700D811D1124911D69
:0607C0000895F894FFCF3C
:0807C6003F0D0A002E20000087
:00000001FF
