:100000000C9435000C945D000C945D000C945D0024
:100010000C945D000C948B020C945D000C945D00BC
:100020000C945D000C945D000C945D000C945D00DC
:100030000C945D000C945D000C945D000C945D00CC
:100040000C94E9010C945D000C9459020C94330259
:100050000C945D000C945D000C945D000C945D00AC
:100060000C945D000C945D00E10311241FBECFEFE2
:10007000D4E0DEBFCDBF23E0A6E0B3E001C01D9217
:10008000A63BB207E1F713E0A0E0B1E0EEEDFDE042
:1000900002C005900D92A630B107D9F710E0C5E374
:1000A000D0E004C02197FE010E94E706C433D107C7
:1000B000C9F70E940E040C94ED060C940000AF9258
:1000C000BF92CF92DF92EF92FF920F931F93CF9345
:1000D000DF936C017B018B01040F151FEB015E01A7
:1000E000AE18BF08C017D10759F06991D601ED913C
:1000F000FC910190F081E02DC6010995892B79F7DB
:10010000C501DF91CF911F910F91FF90EF90DF908C
:10011000CF90BF90AF900895FC01538D448D252F53
:1001200030E0842F90E0821B930B541710F0CF9691
:10013000089501970895FC01918D828D981761F0C3
:10014000A28DAE0FBF2FB11D5D968C91928D9F5FDA
:100150009F73928F90E008958FEF9FEF0895FC01B9
:10016000918D828D981731F0828DE80FF11D858D6C
:1001700090E008958FEF9FEF0895FC01918D228DFF
:10018000892F90E0805C9F4F821B91098F73992784
:100190000895FC01A48DA80FB92FB11DA35ABF4F1C
:1001A0002C91848D90E001968F739927848FA68976
:1001B000B7892C93A089B1898C91837080648C93CA
:1001C000938D848D981306C00288F389E02D808179
:1001D0008F7D80830895EF92FF920F931F93CF93AB
:1001E000DF93EC0181E0888F9B8D8C8D98131AC072
:1001F000E889F989808185FF15C09FB7F894EE8959
:10020000FF896083E889F9898081837080648083B5
:100210009FBF81E090E0DF91CF911F910F91FF9000
:10022000EF900895F62E0B8D10E00F5F1F4F0F73A8
:100230001127E02E8C8D8E110CC00FB607FCFACF63
:10024000E889F989808185FFF5CFCE010E94C90038
:10025000F1CFEB8DEC0FFD2FF11DE35AFF4FF08234
:100260009FB7F8940B8FEA89FB8980818062CFCF9A
:10027000CF93DF93EC01888D8823B9F0AA89BB89DD
:10028000E889F9898C9185FD03C0808186FD0DC0C8
:100290000FB607FCF7CF8C9185FFF2CF808185FFE9
:1002A000EDCFCE010E94C900E9CFDF91CF91089533
:1002B00084E88093BC008091BC0087FFFCCF8091D4
:1002C000BB0008958093BB0084E88093BC008091BC
:1002D000BC0087FFFCCF08958093BB0084EC809323
:1002E000BC008091BC0087FFFCCF0895CF92DF92C5
:1002F000EF92FF920F931F93CF93DF93C82F062F98
:10030000142FD52F84E48093BC008091BC0087FF1C
:10031000FCCF8091BB008C2F0E946C01802F0E942B
:100320006C01E12EFD2E10E000E00C2E000CDD0B28
:100330006E0181E0C81AD1080C171D0774F4F7018B
:1003400081917F01C016D10629F40E9462010F5FDE
:100350001F4FF2CF0E946C01FACF80E88093BC005F
:10036000DF91CF911F910F91FF90EF90DF90CF9091
:100370000895CF93DF9300D0CDB7DEB78983AE0168
:100380004F5F5F4F64E481E00E9476010F900F9011
:10039000DF91CF91089530E020E042EB55E046BD7B
:1003A00055BDA89BFECFA89A15BCA8952F5F3F4FBF
:1003B00082179307A1F70895FC0101900020E9F747
:1003C0003197AF01481B590BBC0189E193E00C94B4
:1003D0005F001F920F920FB60F9211242F933F933D
:1003E0008F939F93AF93BF938091150390911603C2
:1003F000A0911703B09118033091140323E0230F49
:100400002D3758F50196A11DB11D2093140380933B
:10041000150390931603A0931703B09318038091CC
:10042000100390911103A0911203B0911303019650
:10043000A11DB11D8093100390931103A09312038B
:10044000B0931303BF91AF919F918F913F912F91E3
:100450000F900FBE0F901F90189526E8230F02965D
:10046000A11DB11DD2CF1F920F920FB60F92112472
:100470002F933F934F935F936F937F938F939F93AC
:10048000AF93BF93EF93FF9389E193E00E94C9007C
:10049000FF91EF91BF91AF919F918F917F916F915C
:1004A0005F914F913F912F910F900FBE0F901F9032
:1004B00018951F920F920FB60F9211242F938F93BE
:1004C0009F93EF93FF93E0912903F0912A0380819A
:1004D000E0912F03F091300382FD1BC09081809149
:1004E00032038F5F8F7320913303821741F0E091C5
:1004F0003203F0E0E75EFC4F958F80933203FF916B
:10050000EF919F918F912F910F900FBE0F901F90A1
:1005100018958081F4CF1F920F920FB60F9211247D
:100520002F933F934F935F936F937F938F939F93FB
:10053000AF93BF93EF93FF934A9B02C04F99A5C01F
:1005400085E090E00E94CB01DA9A4A9915C080912B
:100550000001909101018330910509F463C084F595
:10056000009709F476C0019709F468C048E053E0A9
:1005700064E088E00E9476014F9987C08091000175
:10058000909101018330910509F490C00CF06DC089
:10059000009709F491C0019709F071C080910001A2
:1005A0009091010101979093010180930001E091E6
:1005B0000001F0910101E85FFC4F8FE580835FC08F
:1005C00086309105D9F08730910569F0049771F66E
:1005D00080910C0390ED980F8F5F953008F080E3C9
:1005E00080930C03C3CF80910F0390ED980F8F5F22
:1005F000923008F080E380930F03B8CF80910E0310
:1006000090910F03923331F490ED980F933030F4C2
:100610008F5F05C0893311F08F35D1F780E3809368
:100620000E03A4CF80910B03893311F08F3521F491
:1006300080E380930B039ACF8F5FFBCF80910903F8
:1006400090ED980F8F5F953008F080E38093090359
:100650008DCF80910803893311F08F3521F480E329
:100660008093080383CF8F5FFBCF86309105F1F035
:100670008730910509F492CF049709F48FCF48E0B1
:1006800053E064E088E00E947601FF91EF91BF9112
:10069000AF919F918F917F916F915F914F913F911A
:1006A0002F910F900FBE0F901F9018958091000111
:1006B00090910101029777CF87E090E0909301013C
:1006C0008093000181E08093070380916D008B7718
:1006D00080936D0080E280930A0380930D034F9B0B
:1006E000FECF8AE090E00E94CB01C9CF84EC8093DA
:1006F000BC008091BC0087FFFCCF8091BB000895B7
:10070000CF92DF92EF92FF920F931F93CF93DF93DD
:1007100000D0CDB7DEB789831A82AE014F5F5F4F3D
:1007200060E581E00E94760184E48093BC008091C2
:10073000BC0087FFFCCF8091BB000E947603182F7E
:100740000E947603105300ED080F8AE0189F000DF9
:100750001124F12CE12C002E000C110B680181E01A
:10076000C81AD108E016F1068CF4CE14DF0459F44F
:100770000E945801682F89E193E00E94EB008FEFFF
:10078000E81AF80AEFCF0E947603F4CF80E880934E
:10079000BC000F900F90DF91CF911F910F91FF90B0
:1007A000EF90DF90CF90089589E193E00E94BD0023
:1007B000892B11F4A895F8CF89E193E00E949B0062
:1007C0000895E9E1F3E01382128288EE93E0A0E05D
:1007D000B0E084839583A683B78386E091E091831C
:1007E000808385EC90E09587848784EC90E0978700
:1007F000868780EC90E0918B808B81EC90E0938BEE
:10080000828B82EC90E0958B848B86EC90E0978BCA
:10081000868B118E128E138E148E0895CF93DF93D4
:1008200000D000D0CDB7DEB784B7A89584B7877F56
:1008300084BF8091600088618093600010926000A6
:1008400082E08093BA0080917C00806480937C0079
:1008500085B78F7E85BF8AB18B778AB98BB1846863
:100860008BB926982E9A83E084B985B78F7E85BF91
:1008700084B18B7784B987B1887F87B98AB187784B
:100880008AB985B1846885B988B1876088B98BB128
:1008900088678BB9609166008DEF91E00E94D90660
:1008A000499BFECF85E090E00E94CB018EEF91E066
:1008B0000E94D106182F80EF810F803E40F48FEF09
:1008C00091E00E94D106181302C010936600E091D7
:1008D0002903F0912A0382E08083E0912503F091BF
:1008E00026031082E0912703F091280380E18083A2
:1008F00010923103E0912D03F0912E0386E0808366
:10090000E0912B03F0912C03808180618083E09142
:100910002B03F0912C03808188608083E0912B036E
:10092000F0912C03808180688083E0912B03F0910B
:100930002C0380818F7D8083789419824A9B02C02A
:100940001E9989B14A9906C01E9904C04F9B02C0E6
:1009500081E089834A9906C01E9B04C04F9902C05A
:1009600082E089834A9B06C01E9904C04F9902C049
:1009700083E08983AE014F5F5F4F61E581E00E94B4
:10098000760181E090E00E94CB0184E48093BC007A
:100990008091BC0087FFFCCF8091BB0080E00E946B
:1009A0006C0186E50E94620184E88093BC0080911E
:1009B000BC0081648093BC0084E48093BC0080917F
:1009C000BC0087FFFCCF8091BB000E9458018130A2
:1009D00009F0F4C080E88093BC0084E191E00E94BB
:1009E000DC010E94D403823309F4B8C02CF58133B2
:1009F00009F4B0C04A9961C188E891E00E94DC0125
:100A000010E000E082E3E82EF12C89E193E00E94FF
:100A1000BD00892B09F037C10F5F1F4FA895013426
:100A2000EFE11E072CF0F1E0EF1AF10810E000E012
:100A3000E114F10451F7E0CF833309F491C084331A
:100A4000C9F688E199E00FB6F894A8958093600004
:100A50000FBE909360008CEF91E00E94D10681114F
:100A60000BC08BEF91E00E94D106811105C06FEFA2
:100A70008CEF91E00E94D906F12C10E000E0AEE985
:100A8000EA2EB2E6DB2ECC24CA9483E0B82EC8014D
:100A9000F11012C0009781F48CEF91E00E94D10612
:100AA000182F8BEF91E00E94D106212F30E0322FDA
:100AB0002227820F932F911D8C01169507959C017B
:100AC0003695279536952795AC0163E05695479561
:100AD0006A95E1F7242735272827392775E0969569
:100AE00087957A95E1F78227932799278695979599
:100AF0008827082B192BF3948FEFF81212C0612F5F
:100B00008CEF91E00E94D906602F8BEF91E00E945C
:100B1000D90685B1982F9270F92E81FF49C0299886
:100B2000F12CC801880F991F09831A838B839C833A
:100B3000AE014F5F5F4F61E084E00E947601E0927A
:100B40008500D0928400C6BAB0928100B09932C0BC
:100B5000A895FCCF80E30E9480034CCF81E3FBCFBC
:100B60001092060394E4F92E00E8F092BC00809104
:100B7000BC0087FFFCCF8091BB0080E00E946C012D
:100B800088E40E9462010093BC00F092BC00809156
:100B9000BC0087FFFCCF8091BB000E9476038823B6
:100BA00009F45EC0682F89E193E00E94EB00F5CF65
:100BB000299AB7CFB09A1092810069CF80E88093CC
:100BC000BC0018CF123429F1133459F1113409F053
:100BD000C3C01E9B1AC011E0BFC01E9905C082E3AE
:100BE00090E00E94CB0111E44A9906C082E30E9482
:100BF000B9014A9BFECF12E44F99AEC083E30E9435
:100C0000B9014F9BFECF13E4A7C01E9BFECF12E09D
:100C1000A3C04A99A1C081E30E94B9014A9BFECFBB
:100C20009AC04F99F0CF81E30E94B9014F9BFECF4C
:100C300092C04F9907C087E30E94B90184E190E018
:100C40000E94CB014A9907C086E30E94B90184E162
:100C500090E00E94CB011E99DACF1E9BFECF7BC095
:100C60000E9458010093BC0085E592E00E94DC01DF
:100C7000109106031F5F109306030E94D4031330E4
:100C80000CF473CFB7CE89E193E00E949B008F7D77
:100C9000823509F0B1CE85E592E00E94DC018FE853
:100CA00091E00E94DC0189E192E00E94DC0188E58C
:100CB00092E00E94DC014A9BFECF80916800856033
:100CC0008093680080916B00806480936B008091BA
:100CD0006D00846880936D0080916B008F7B8093A2
:100CE0006B00109208031092090310920A031092ED
:100CF0000B0310920C0310920D0310920E038FE55C
:100D000080930F0348E053E064E088E00E9476019E
:100D10007894809107038823E1F31092070348E059
:100D200053E0DA01FA018191AF0117969C91179770
:100D30009F0121503109F901908317968C931797E1
:100D40001197F3E04C305F0769F748E053E063E444
:100D500088E00E94760110E08AE090E00E94CB01DA
:100D6000123009F466CF0CF02DCF112309F435CFE2
:100D7000113091F74F9907C085E30E94B90184E1D2
:100D800090E00E94CB014A9907C088E30E94B90114
:100D900084E190E00E94CB011E991DCF1E9BFECFE7
:100DA000DACFF999FECF92BD81BDF89A992780B527
:100DB0000895262FF999FECF1FBA92BD81BD20BD9F
:100DC0000FB6F894FA9AF99A0FBE01960895EE0FAD
:0E0DD000FF1F0590F491E02D0994F894FFCFD9
:100DDE00070000000000EB005F008C003801BD0032
:100DEE009B00AF000D0A50726573730D0A312066B9
:100DFE006F72204F532076657273696F6E0D0A32D3
:100E0E0020666F722073797374656D2064617461EE
:100E1E000D0A33204D6573736167652066726F6DC1
:100E2E0020746865204F5320287820746F206573D6
:100E3E0063617065290D0A342044656661756C74B2
:100E4E002070726F6A6563740D0A3020746F2065AE
:100E5E0073636170650D0A00523F20202020000D43
:100E6E000A5354414E442D612D4C4F4E4520434C58
:100E7E004F434B0D0A5573652073773120616E64B5
:100E8E00203320746F20656E7465722074696D65F1
:100E9E0020283234487220636C6F636B290D0A610F
:100EAE006E642073773320746F20737461727420B4
:100EBE0074686520636C6F636B2E0D0A50726573D8
:100ECE00732073773120746F20746F67676C6520A1
:100EDE0074686520646973706C6179206F6E20612F
:100EEE006E64206F66660D0A005072657373207310
:100EFE00773320746F207061757365206F72207266
:100F0E006573756D652074686520636C6F636B0D1A
:100F1E000A546F2061646A75737420746865206367
:100F2E006C6F636B3A0D0A0070756C736520737786
:100F3E0032207468656E207072657373207377311A
:100F4E00206F722073773320746F20616476616E28
:100F5E006365207468652074696D650D0A6F722073
:100F6E00707265737320616E6420686F6C64207399
:100F7E0077322028666F72203530306D73290D0A56
:100F8E007468656E20707265737320737731206F8D
:100F9E00722073773320746F2072657461726420CF
:100FAE007468652074696D650D0A416C776179739B
:100FBE002070756C736520737732207768656E20AC
:100FCE007468652074696D6520697320636F727231
:060FDE006563740D0A00BA
:00000001FF
