:100000000C9434000C9446000C9446000C94CB00E5
:100010000C9446000C94FC000C9446000C94460092
:100020000C9446000C9446000C9446000C94460038
:100030000C9446000C9446000C9446000C94460028
:100040000C9446000C9446000C9446000C94460018
:100050000C9446000C9446000C9446000C94460008
:100060000C9446000C94460011241FBECFEFD4E040
:10007000DEBFCDBF21E0A0E0B1E001C01D92AD30F8
:10008000B207E1F70E945F010C94EA030C940000B0
:100090008093BB0084E88093BC008091BC0087FF04
:1000A000FCCF08958093BB0084EC8093BC008091CA
:1000B000BC0087FFFCCF0895CF92DF92EF92FF92B2
:1000C0000F931F93CF93DF93C82F062F142FD52F95
:1000D00084E48093BC008091BC0087FD02C0A89599
:1000E000FACF8091BB008C2F0E945200802F0E947B
:1000F0005200E12EFD2E10E000E00C2E000CDD0B76
:100100006E0181E0C81AD1080C171D0774F4F701BD
:1001100081917F01C016D10629F40E9448000F5F2B
:100120001F4FF2CF0E945200FACF80E88093BC00AC
:10013000DF91CF911F910F91FF90EF90DF90CF90C3
:100140000895AC0164E088E00C945C00CF93DF93E9
:1001500000D0CDB7DEB781E689831A82AE014F5F4A
:100160005F4F62E082E00E945C000F900F90DF9191
:10017000CF91089530E020E042EB55E046BD55BDFB
:10018000A89BFECFA89A15BCA8952F5F3F4F82175A
:100190009307A1F708951F920F920FB60F921124A3
:1001A0002F933F934F935F936F937F938F939F937F
:1001B000AF93BF93EF93FF931E990DC00E94A600CB
:1001C00089E190E00E94BA0085E091E00E94A100E0
:1001D00081E080930401FF91EF91BF91AF919F91D6
:1001E0008F917F916F915F914F913F912F910F90E0
:1001F0000FBE0F901F9018951F920F920FB60F927F
:1002000011242F933F934F935F936F937F938F931B
:100210009F93AF93BF93CF93DF93EF93FF934A994D
:1002200005C080916D00806880936D00C0E3DDE2C1
:100230004A991CC0809105018D3289F0893391F46F
:100240008091060181110BC0D093050185E091E0FA
:100250000E94A10089E190E00E94BA00E9CFC0931A
:100260000501F4CF8F5F80930501F0CF4F9914C043
:1002700080916D008F7780936D00ECE0F1E08291CA
:10028000818381E0E530F807D1F780E380930501B1
:1002900085E091E00E94A100FF91EF91DF91CF9165
:1002A000BF91AF919F918F917F916F915F914F918E
:1002B0003F912F910F900FBE0F901F901895CF93E5
:1002C000DF93CDB7DEB728970FB6F894DEBF0FBE29
:1002D000CDBF04B603FE03C082E08093030104B6E1
:1002E00000FE03C081E08093030104B601FE03C059
:1002F00083E08093030180910301823049F48AEF07
:1003000091E00E94AC03811103C084E0809303015B
:1003100080910301823049F48AEF91E00E94AC039E
:10032000813019F485E0809303016FEF8AEF91E04B
:100330000E94B40314BEA8958FB780930201F8946D
:10034000809160008861809360001092600014BE0C
:10035000809102018FBF82E08093BA0080917C007F
:10036000806480937C0085B78F7E85BF8AB18B7750
:100370008AB98BB184688BB926982E9A83E084B9A8
:1003800085B78F7E85BF84B18B7784B987B1887F2D
:1003900087B98AB187788AB985B1846885B988B107
:1003A000876088B98BB188678BB9609166008DEFE3
:1003B00091E00E94B403499BFECF85E090E00E944B
:1003C000BA008EEF91E00E94AC03182F80EF810FEE
:1003D000803E40F48FEF91E00E94AC03181302C0FE
:1003E000109366001092C1001092C50080E18093C6
:1003F000C40082E08093C00088E18093C10086E061
:100400008093C20019824A9B02C01E9989B14A9901
:1004100006C01E9904C04F9B02C081E089834A999F
:1004200006C01E9B04C04F9902C082E089834A9B8C
:1004300006C01E9904C04F9902C083E08983CE0193
:1004400001967C01AC0161E581E00E945C0081E0E5
:1004500090E00E94BA0084E48093BC008091BC00CC
:1004600087FD02C0A895FACF8091BB0080E00E9472
:10047000520086E50E94480084E88093BC00809189
:10048000BC0081648093BC0084E48093BC008091B4
:10049000BC0087FD02C0A895FACF8091BB0084E81C
:1004A0008093BC008091BC0087FFFCCF8091BB0093
:1004B000813009F08FC080E88093BC0088E199E02A
:1004C0000FB6F894A895809360000FBE90936000DB
:1004D0008CEF91E00E94AC0381110BC08BEF91E097
:1004E0000E94AC03811105C06FEF8CEF91E00E9478
:1004F000B403D12C10E000E0AEE9CA2EB2E6BB2E68
:10050000AA24AA9483E0982EC801D11011C00097A4
:1005100079F48CEF91E00E94AC03082F8BEF91E00F
:100520000E94AC0310E0102F0027800F912F911D27
:100530009C01369527958C0116950795169507957C
:10054000AC0163E0569547956A95E1F704271527B6
:100550000827192775E0969587957A95E1F708277A
:1005600019271127069517950027022B132BD394D3
:100570009FEFD91212C0612F8CEF91E00E94B4035B
:10058000602F8BEF91E00E94B40385B1282F227079
:10059000D22E81FF19C02998D12CC801880F991F2C
:1005A00009831A838B839C83A70161E084E00E9406
:1005B0005C00C0928500B0928400A6BA909281003F
:1005C000B09904C0A895FCCF299AE7CFB09A1092B1
:1005D00081009ACF80E88093BC0078944A9BFECF3C
:1005E0008091680085608093680080916B008064D2
:1005F00080936B0080916D00846880936D001092F1
:100600000601109207011092080110920901109240
:100610000A0110920B0110920C0180E380930501F6
:1006200085E091E00E94A100809104018823E1F31C
:100630001092040180916B008F7B80936B008091FE
:100640006D008B7780936D0084E48093BC00809173
:10065000BC0087FD02C0A895FACF8091BB0080E066
:100660000E94520089E40E94480084E88093BC0004
:1006700084E48093BC008091BC0087FD02C0A895F3
:10068000FACF8091BB0090E080E024EC34E8833026
:10069000910509F05AC03093BC004091BC0047FF5F
:1006A000FCCF4091BB0001968430910581F780E832
:1006B0008093BC00E5E0F1E000E08191882319F02F
:1006C0000F5F0830D1F70E94A6001A821B821C829D
:1006D0001D821E821F821886D12CC12C002E000C78
:1006E000110B58018FEFA81AB80AC601B5010E9474
:1006F000C203F801E81BF90BEB5FFE4F8081898391
:100700009FEFC91AD90AC7010E94A1002FEF81EEFD
:1007100094E0215080409040E1F700C00000FE01CD
:10072000389682918183EE15FF05D9F74A99DDCF7E
:100730004A99FECF88E199E00FB6F894A895809386
:1007400060000FBE90936000FFCF2093BC004091EB
:10075000BC0047FFFCCFA5CFF999FECF92BD81BD6C
:10076000F89A992780B50895262FF999FECF1FBAD8
:1007700092BD81BD20BD0FB6F894FA9AF99A0FBECA
:100780000196089597FB072E16F4009407D077FD85
:1007900009D00E94D60307FC05D03EF490958195C0
:1007A0009F4F0895709561957F4F0895AA1BBB1BBD
:1007B00051E107C0AA1FBB1FA617B70710F0A61B61
:1007C000B70B881F991F5A95A9F780959095BC0182
:0807D000CD010895F894FFCF5C
:00000001FF
