:100000000C9434000C9451000C9451000C94C200D8
:100010000C9451000C9404010C9451000C94510068
:100020000C9451000C9451000C9451000C9451000C
:100030000C9451000C9451000C9451000C945100FC
:100040000C9451000C9451000C9451000C945100EC
:100050000C9451000C9451000C9451000C945100DC
:100060000C9451000C94510011241FBECFEFD4E02A
:10007000DEBFCDBF11E0A0E0B1E0E6E2FAE002C0F1
:1000800005900D92A03BB107D9F721E0A0EBB1E0BC
:1000900001C01D92AD3BB207E1F70E9479010C94BB
:1000A00011050C9400008093BB0084E88093BC0091
:1000B0008091BC0087FFFCCF08958093BB0084EC47
:1000C0008093BC008091BC0087FFFCCF0895CF9245
:1000D000DF92EF92FF920F931F93CF93DF93C82F7E
:1000E000062F142FD52F84E48093BC008091BC0090
:1000F00087FD02C0A895FACF8091BB008C2F0E948B
:100100005D00802F0E945D00E12EFD2E10E000E0DA
:100110000C2E000CDD0B6E0181E0C81AD1080C1703
:100120001D0774F4F70181917F01C016D10629F4EF
:100130000E9453000F5F1F4FF2CF0E945D00FACF65
:1001400080E88093BC00DF91CF911F910F91FF90C9
:10015000EF90DF90CF900895AC0164E088E00C94BC
:10016000670030E020E042EB55E046BD55BDA89B5E
:10017000FECFA89A15BCA8952F5F3F4F8217930713
:10018000A1F708951F920F920FB60F9211242F938B
:100190003F934F935F936F937F938F939F93AF930F
:1001A000BF93EF93FF93CF93DF9300D0CDB7DEB72C
:1001B0001E9915C081E689831A82AE014F5F5F4F99
:1001C00062E082E00E94670089E190E00E94B10055
:1001D00085EB91E00E94AC0081E08093B4010F9028
:1001E0000F90DF91CF91FF91EF91BF91AF919F91D0
:1001F0008F917F916F915F914F913F912F910F90D0
:100200000FBE0F901F9018951F920F920FB60F926E
:1002100011242F933F934F935F936F937F938F930B
:100220009F93AF93BF93CF93DF93EF93FF934A993D
:1002300005C080916D00806880936D00C0E3DDE2B1
:100240004A991CC08091B5018D3289F0893391F4AF
:100250008091B60181110BC0D093B50185EB91E07F
:100260000E94AC0089E190E00E94B100E9CFC09308
:10027000B501F4CF8F5F8093B501F0CF4F9914C0D3
:1002800080916D008F7780936D00ECEBF1E08291AF
:10029000818381E0E53BF807D1F780E38093B501E6
:1002A00085EB91E00E94AC00FF91EF91DF91CF913F
:1002B000BF91AF919F918F917F916F915F914F917E
:1002C0003F912F910F900FBE0F901F901895AC018A
:1002D00048535F4FFC012191CF01222349F0309117
:1002E000C00035FFFCCF2093C6008417950791F717
:1002F0000895CF93DF93CDB7DEB765970FB6F89427
:10030000DEBF0FBECDBF04B603FE03C082E0809304
:10031000B30104B600FE03C081E08093B30104B6CC
:1003200001FE03C083E08093B3018091B30182306A
:1003300049F48AEF91E00E949004811103C084E0A7
:100340008093B3018091B301823049F48AEF91E048
:100350000E949004813019F485E08093B3016FEF1F
:100360008AEF91E00E94980414BEA8958FB78093FD
:10037000B201F894809160008861809360001092CF
:10038000600014BE8091B2018FBF82E08093BA00FA
:1003900080917C00806480937C0085B78F7E85BFD0
:1003A0008AB18B778AB98BB184688BB926982E9ADB
:1003B00083E084B985B78F7E85BF84B18B7784B99C
:1003C00087B1887F87B98AB187788AB985B184680F
:1003D00085B988B1876088B98BB188678BB960911E
:1003E00066008DEF91E00E949804499BFECF85E066
:1003F00090E00E94B1008EEF91E00E949004182FCF
:1004000080EF810F803E40F48FEF91E00E949004D6
:10041000181302C0109366001092C1001092C5001C
:1004200080E18093C40082E08093C00088E18093E3
:10043000C10086E08093C20019824A9B02C01E99C7
:1004400089B14A9906C01E9904C04F9B02C081E041
:1004500089834A9906C01E9B04C04F9902C082E05E
:1004600089834A9B06C01E9904C04F9902C083E04D
:1004700089839E012F5F3F4F1901A90161E581E04A
:100480000E94670081E090E00E94B10084E48093C4
:10049000BC008091BC0087FD02C0A895FACF809176
:1004A000BB0080E00E945D0086E50E94530084E866
:1004B0008093BC008091BC0081648093BC0084E484
:1004C0008093BC008091BC0087FD02C0A895FACF44
:1004D0008091BB0084E88093BC008091BC0087FFC2
:1004E000FCCF8091BB00813009F08FC080E8809301
:1004F000BC0088E199E00FB6F894A895809360005D
:100500000FBE909360008CEF91E00E9490048111E7
:100510000BC08BEF91E00E949004811105C06FEF3A
:100520008CEF91E00E949804F12C10E000E02EE99D
:10053000E22E32E6D32ECC24CA9443E0B42EC80176
:10054000F11011C0009779F48CEF91E00E949004B3
:10055000082F8BEF91E00E94900410E0102F0027ED
:10056000800F912F911D9C01369527958C01169532
:10057000079516950795AC01F3E056954795FA95C2
:10058000E1F70427152708271927A5E096958795F1
:10059000AA95E1F70827192711270695179500272F
:1005A000022B132BF3943FEFF31212C0612F8CEF49
:1005B00091E00E949804602F8BEF91E00E949804D4
:1005C00085B1482F4270F42E81FF19C02998F12C73
:1005D000C801880F991F09831A838B839C83A1010B
:1005E00061E084E00E946700E0928500D092840080
:1005F000C6BAB0928100B09904C0A895FCCF299AE0
:10060000E7CFB09A109281009ACF80E88093BC0027
:100610008091B301823099F18330B1F178944A9B93
:10062000FECF1E9BFCCF4F9BFACF80916800856068
:100630008093680080916B00806480936B00809150
:100640006D00846880936D001092B6011092B7011E
:100650001092B8011092B9011092BA011092BB0128
:100660001092BC0180E38093B50185EB91E00E947C
:10067000AC008091B40181110AC0A895FACF80E046
:1006800091E00E946701CACF85E191E0FACF109214
:10069000B40180916B008F7B80936B0080916D0023
:1006A0008B7780936D0084E48093BC008091BC00C4
:1006B00087FD02C0A895FACF8091BB0080E00E9420
:1006C0005D0089E40E94530084E88093BC0084E4C8
:1006D0008093BC008091BC0087FD02C0A895FACF32
:1006E0008091BB00C12CD12C760190E080E024ECFD
:1006F00034E88330910509F047C03093BC00409145
:10070000BC0047FFFCCF4091BB00C40ED11CE11CD4
:10071000F11C01968430910561F780E88093BC005C
:10072000F982EA82DB82CC82A10166E084E00E9449
:1007300067008FE090E00E94B100412C512C320103
:10074000439454E0C516D104E104F10474F142E08D
:10075000842E912CA12CB12C2401350181E0481A62
:10076000510861087108A5019401C501B4010E94F6
:10077000A604C616D706E806F906BCF09FEF891A4C
:10078000990AA90AB90AE8CF2093BC004091BC009D
:1007900047FFFCCF4091BB00C40ED11CE11CF11CF3
:1007A000FE2CED2CDC2CCC24B4CF5E01ADE0AA0EE7
:1007B000B11CF1011192AE16BF06E1F7BA8AA98AFF
:1007C000C301B2010BE010E02AE0822E912CA12C93
:1007D000B12CA50194010E94B604605DE989FA89F3
:1007E0006293FA8BE98B01501109B901CA016115B5
:1007F00071058105910569F717FD21C0910181E01F
:1008000090E0EBE0F0E0E01BF10BE817F9077CF07B
:10081000DC01A00FB11F41E050E04C0F5D1FA40FA1
:10082000B51F4C91D9014D939D010196EECF21E06A
:1008300030E02C0F3D1FE20FF31F8EE280830D8B03
:10084000ECE0E01B82E1801B082F1FE2A4E6B0E091
:10085000A70196010E94D504698B7A8B8B8B9C8BA8
:100860006B017C01AAE0B0E0A30192010E94D504D3
:10087000F62F862E972E5C01240135013FEF831A57
:10088000930AA30AB30AA5019401C501B4010E9409
:10089000A60429893A894B895C89261737074807B6
:1008A000590754F7A1E0B0E0AC0FBD1FAE0FB11D6A
:1008B000E7FDBA95812F8F1B880E8C92EF5FE013B6
:1008C000C5CF82E1ED898E1BE1E0F0E0EC0FFD1F6A
:1008D000E80FF11D87FDFA951082F10181918823BF
:1008E00039F09091C00095FFFCCF8093C600F6CF01
:1008F000FE013996DF01CF0122912D932E163F067E
:10090000D9F70E94AC004F99FECF88E199E00FB66D
:10091000F894A895809360000FBE90936000FFCF7D
:10092000F999FECF92BD81BDF89A992780B50895B7
:10093000262FF999FECF1FBA92BD81BD20BD0FB6FB
:10094000F894FA9AF99A0FBE01960895DB018F93F5
:100950009F930E94D504BF91AF91A29F800D911DDE
:10096000A39F900DB29F900D11240895052E97FB23
:100970001EF400940E94CD0457FD07D00E94E004AD
:1009800007FC03D04EF40C94CD045095409530955F
:1009900021953F4F4F4F5F4F0895909580957095EB
:1009A00061957F4F8F4F9F4F08950E940205A59F2D
:1009B000900DB49F900DA49F800D911D112408955A
:1009C000A1E21A2EAA1BBB1BFD010DC0AA1FBB1F53
:1009D000EE1FFF1FA217B307E407F50720F0A21BC5
:1009E000B30BE40BF50B661F771F881F991F1A9432
:1009F00069F760957095809590959B01AC01BD015C
:100A0000CF010895A29FB001B39FC001A39F700DB5
:100A1000811D1124911DB29F700D811D1124911D06
:060A20000895F894FFCFD9
:100A26000D0A456E746572206E6577206E756D626F
:100A360065720D0A000D0A444154412046524F4D3D
:100A460020492F4F0D0A507265737320737731203A
:100A5600746F20706F70756C617465206469676966
:100A660074735B305D0D0A73773320746F2073687F
:100A760069667420646973706C6179206C6566744C
:100A86000D0A73773220746F20656E746572207458
:100A96006865206E756D6265720D0A737731207414
:100AA6006F207061757365207468652070726F675A
:100AB60072616D20616E6420726573746172742058
:100AC6007468652070726F6772616D2E0D0A000082
:00000001FF
