:100000000C9434000C9451000C9451000C94510049
:100010000C9451000C9451000C9451000C9451001C
:100020000C9451000C9451000C9451000C9451000C
:100030000C9451000C9451000C9451000C945100FC
:100040000C9451000C9451000C9451000C945100EC
:100050000C9451000C9451000C9451000C945100DC
:100060000C9451000C94510011241FBECFEFD4E02A
:10007000DEBFCDBF11E0A0E0B1E0EEE2FBE002C0E8
:1000800005900D92AC33B107D9F721E0ACE3B1E0B4
:1000900001C01D92AD33B207E1F70E94B7010C9485
:1000A00095050C9400008093BB0084E88093BC000D
:1000B0008091BC0087FFFCCF08958093BB0084EC47
:1000C0008093BC008091BC0087FFFCCF0895CF9245
:1000D000DF92EF92FF920F931F93CF93DF93C82F7E
:1000E000062F142FD52F84E48093BC008091BC0090
:1000F00087FFFCCF8091BB008C2F0E945D00802F7A
:100100000E945D00E12EFD2E10E000E00C2E000CA0
:10011000DD0B6E0181E0C81AD1080C171D0774F4BD
:10012000F70181917F01C016D10629F40E94530086
:100130000F5F1F4FF2CF0E945D00FACF80E88093DF
:10014000BC00DF91CF911F910F91FF90EF90DF9056
:10015000CF9008959091C00095FFFCCF8093C6008A
:1001600008950F931F93CF93DF93EC018C010853F5
:100170001F4F8991882329F00E94AA00C017D10738
:10018000C1F7DF91CF911F910F91089530E020E0EA
:100190004091C00047FD0BC02F5F3F4FA895213411
:1001A0004FE13407ACF3019789F780E0089581E0CF
:1001B000089530E020E042EB55E046BD55BDA89BD8
:1001C000FECFA89A15BCA8952F5F3F4F82179307C3
:1001D000A1F70895FF920F931F93CF93DF9300D061
:1001E000CDB7DEB78C010996F80111928E179F07E3
:1001F000E1F78091C00087FD02C0A895FACFF0908A
:10020000C60080ED8F0D8A3018F02DE2F212F1CF8A
:10021000F801F082FDE2FF1619F08BE20E94AA00BD
:100220008F2D0E94AA00A80164E088E00E94670068
:1002300088E090E00E94C6008823D1F3F090C600C9
:100240002DE0F21619F08AE0F8126BC081E090E020
:100250000E94C60081118091C60081E689831A82BE
:10026000AE014F5F5F4F62E082E00E946700A89599
:10027000FFEF20E782E0F15020408040E1F700C02E
:100280000000A8959FEFE0E7F2E09150E040F040D9
:10029000E1F700C00000A80164E088E00E94670068
:1002A00084E48093BC008091BC0087FFFCCF8091E8
:1002B000BB0080E00E945D0089E40E94530084E856
:1002C0008093BC0084E48093BC008091BC0087FFD5
:1002D000FCCF8091BB0060E070E0CB0130E020E01B
:1002E00044EC54E82330310589F55093BC00E0918B
:1002F000BC00E7FFFCCFE091BB006E0F711D811DBC
:10030000911D2F5F3F4F2430310561F720E8209386
:10031000BC000F900F90DF91CF911F910F91FF9034
:10032000089580ED8F0D8A3008F082CF8F2D0E94C6
:10033000AA00F8018081882331F038968291818368
:100340000E171F07D9F7F801F0826DCF4093BC005C
:10035000E091BC00E7FFFCCFE091BB006E0F711D88
:10036000811D911D982F872F762F6627CACFCF9397
:10037000DF93CDB7DEB7E6970FB6F894DEBF0FBEBA
:10038000CDBF04B603FE03C081E080933C01A89575
:1003900084B7877F84BF809160008861809360000C
:1003A0001092600082E08093BA0080917C008064AB
:1003B00080937C0085B78F7E85BF8AB18B778AB9A1
:1003C0008BB184688BB926982E9A83E084B985B75F
:1003D0008F7E85BF84B18B7784B987B1887F87B9D9
:1003E0008AB187788AB985B1846885B988B1876010
:1003F00088B98BB188678BB9609166008DEF91E009
:100400000E944605499BFECF85E090E00E94D900FE
:100410008EEF91E00E943E05F82E80EF8F0D803E1A
:1004200040F48FEF91E00E943E05F81202C0F09276
:1004300066001092C1001092C50080E18093C40054
:1004400082E08093C00088E18093C10086E08093C1
:10045000C20019824A9B02C01E9989B14A9906C0FE
:100460001E9904C04F9B02C081E089834A9906C04F
:100470001E9B04C04F9902C082E089834A9B06C03C
:100480001E9904C04F9902C083E08983AE014F5F7B
:100490005F4F61E581E00E94670081E090E00E948B
:1004A000D90084E48093BC008091BC0087FFFCCF1E
:1004B0008091BB0080E00E945D0086E50E945300B1
:1004C00084E88093BC008091BC0081648093BC0070
:1004D00084E48093BC008091BC0087FFFCCF8091B6
:1004E000BB0084E88093BC008091BC0087FFFCCFF8
:1004F0008091BB00813009F092C080E88093BC00FD
:1005000088E199E00FB6F894A895809360000FBE3B
:10051000909360008CEF91E00E943E0581110BC02A
:100520008BEF91E00E943E05811105C06FEF8CEFCB
:1005300091E00E944605F12C10E000E0AEE9EA2EC1
:10054000B2E6DB2ECC24CA9483E0B82EC801F110A9
:1005500012C0009781F48CEF91E00E943E05182FA5
:100560008BEF91E00E943E05212F30E0322F2227B1
:10057000820F932F911D8C01169507959C0136953E
:10058000279536952795AC0163E0569547956A9572
:10059000E1F7242735272827392775E09695879591
:1005A0007A95E1F78227932799278695979588274B
:1005B000082B192BF3942FEFF21212C0612F8CEF3E
:1005C00091E00E944605602F8BEF91E00E94460566
:1005D00085B1382F3270F32E81FF1BC02998F12C82
:1005E000C801880F991F09831A838B839C83AE01EE
:1005F0004F5F5F4F61E084E00E946700E0928500FA
:10060000D0928400C6BAB0928100B09904C0A89577
:10061000FCCF299AE5CFB09A1092810097CF80E85D
:100620008093BC0080913C01813029F180E091E011
:100630000E94B1004A9BFECFCE010D960E94EA00B7
:100640006B017C018FE291E00E94B100CE010D961A
:100650000E94EA004B015C0183E391E00E94B1003B
:100660002601370120E277FC09C0440C551C661CAA
:10067000771C2150F8CF8CE291E0DACF822FB701BE
:10068000A6017595679557954795481559056A05CB
:100690007B0524F081506A017B01F1CF50E040E0FE
:1006A000082E000C990B481759070CF448C1442731
:1006B0005527BA01481959096A097B094F8F58A370
:1006C00069A37AA3AB01772757FD7095672F4BA7D6
:1006D0005CA76DA77EA71E8E1D8E40E050E0BA017C
:1006E000022E000C330B1901281A390A8F8D98A19C
:1006F000A9A1BAA1AA27BB278FA798ABA9ABBAAB70
:10070000AD8DBE8DA215B3050CF02EC11BA21CA28F
:100710001DA21EA21EAA1DAA1CAA9701860122279D
:100720003327098F1A8F2B8F3C8F0F8D18A129A18A
:100730003AA10C291D292E293F29D901C801AA2730
:10074000BB278FA398A7A9A7BAA781E090E00CA820
:1007500002C0880F991F0A94E2F7092E000CAA0B19
:10076000BB0B098D1A8D2B8D3C8D082319232A2351
:100770003B23E1E0012B022B032B09F4E0E011E025
:100780001BAB0FA518A929A93AA9082319232A23C5
:100790003B23012B022B032B09F41BAAFBA9FE27E9
:1007A0001EA9F11761F00BA11CA12DA13EA1082BE0
:1007B000192B2A2B3B2B0BA31CA32DA33EA31EA955
:1007C000112309F4C3C00FA118A529A53AA58023B8
:1007D0009123A223B32311E01EAB892B8A2B8B2BF1
:1007E00009F41EAA8CA99DA901969DAB8CAB4097DC
:1007F00009F0ABCF8701332717FD3095232F098FE1
:100800001A8F2B8F3C8F8BA59CA5ADA5BEA5082B61
:10081000192B2A2B3B2B0FA318A729A73AA7C12CCA
:10082000D12C76011DAA1CAA81E090E00CA802C080
:10083000880F991F0A94E2F7092E000CAA0BBB0B34
:10084000098D1A8D2B8D3C8D082319232A233B23D8
:10085000E1E0012B022B032B09F4E0E011E01BABDC
:100860000BA51CA52DA53EA5082319232A233B2350
:10087000012B022B032B09F41BAAFBA9FE271EA99F
:10088000F11721F0C82AD92AEA2AFB2A2EA9222305
:1008900009F460C00FA118A529A53AA580239123CA
:1008A000A223B32311E01EAB892B8A2B8B2B09F4D7
:1008B0001EAA8CA99DA901969DAB8CAB409709F00F
:1008C000B3CF440F551F661F771F41607601DD24AB
:1008D000CC248BA19CA1ADA1BEA1AA27BB278C29AA
:1008E0009D29AE29BF296C017D01CC0CDD1CEE1CBD
:1008F000FF1C77FE02C06894C0F8440C551C661CAF
:10090000771C0D8D1E8DC8010196C814D904EA0408
:10091000FB042CF5440F551F661F771F2816390658
:10092000E9F0CC0CDD1CEE1CFF1C77FE02C06894C5
:10093000C0F8440C551C661C771C8C01E4CF440C99
:10094000551C661C771C4F5F5F4FADCE2BA92E2325
:100950002EAB48CF2BA92E232EABABCF8101D801D4
:100960001196BE8FAD8FCCCE2016310649F0440FC4
:10097000551F661F771F4160C818D908EA08FB0891
:100980003BE2332E77FF09C07095609550954195F5
:100990005F4F6F4F7F4FEDE23E2ECB01BA018E01CC
:1009A0000F5F1F4F48012AE0422E512C612C712C01
:1009B000A30192010E945405605DF40161934F010F
:1009C0005F01A01AB10AB901CA016115710581055B
:1009D000910571F7F801EA0DFB1D1082FDE23F124F
:1009E00003C08DE20E94AA00A00EB11ED5018E9117
:1009F0005D010E94AA000A151B05C1F780E20E9452
:100A0000AA0087E391E00E94B1004801B12CA12C1B
:100A10008AE0482E512C612C712CBFEFAB1ABB0A17
:100A2000C701B601A30192010E947605605DF40141
:100A300061934F0169017A011C141D041E041F04F7
:100A400064F37801EA0CFB1CD7011C92F701829138
:100A50007F010E94AA000E151F05C1F780E20E94C7
:100A6000AA004A99FECF88E199E00FB6F894A895BC
:100A7000809360000FBE90936000FFCFF999FECF86
:100A800092BD81BDF89A992780B50895262FF999CE
:100A9000FECF1FBA92BD81BD20BD0FB6F894FA9A61
:100AA000F99A0FBE01960895A1E21A2EAA1BBB1B4C
:100AB000FD010DC0AA1FBB1FEE1FFF1FA217B3072A
:100AC000E407F50720F0A21BB30BE40BF50B661F40
:100AD000771F881F991F1A9469F760957095809504
:100AE00090959B01AC01BD01CF010895052E97FBA8
:100AF0001EF400940E948D0557FD07D00E945405F6
:100B000007FC03D04EF40C948D055095409530951C
:100B100021953F4F4F4F5F4F089590958095709569
:0E0B200061957F4F8F4F9F4F0895F894FFCF40
:100B2E000D0A456E746572206469766964656E643B
:100B3E0020616E642064697669736F720D0A546861
:100B4E00656E207072657373207377310D0A002005
:0C0B5E002F2000203D200020252000005A
:00000001FF
