:100000000C9434000C943E000C943E000C943E0082
:100010000C943E000C943E000C943E000C943E0068
:100020000C943E000C943E000C943E000C943E0058
:100030000C943E000C943E000C943E000C943E0048
:100040000C943E000C943E000C943E000C943E0038
:100050000C943E000C943E000C943E000C943E0028
:100060000C943E000C943E0011241FBECFEFD4E050
:10007000DEBFCDBF0E941A010C94A6020C940000B2
:100080008093BB0084EC8093BC008091BC0087FF10
:10009000FCCF0895BF92CF92DF92EF92FF920F9321
:1000A0001F93CF93DF93C82F062F142FD52F84E4EF
:1000B0008093BC008091BC0087FFFCCF8091BB0087
:1000C0008C2F0E944000802F0E944000E12EFD2EC8
:1000D00010E000E00C2E000CDD0B6E0181E0C81A70
:1000E000D10884E8B82E0C171D07A4F4F7018191FC
:1000F0007F01C016D10659F48093BB00B092BC00BA
:100100008091BC0087FFFCCF0F5F1F4FECCF0E9498
:100110004000FACF80E88093BC00DF91CF911F911F
:100120000F91FF90EF90DF90CF90BF900895CF9305
:10013000DF9300D000D0CDB7DEB789839A836B837D
:100140007C83AE014F5F5F4F61E084E00E944A0014
:100150000F900F900F900F90DF91CF91089530E0A6
:1001600020E042EB55E046BD55BDA89BFECFA89AC6
:1001700015BCA8952F5F3F4F82179307A1F70895ED
:10018000EF92FF920F931F93CF93DF938B01FB01AD
:10019000D081D11112C0009781F48CEF91E00E94C0
:1001A0007C02C82F8BEF91E00E947C022C2F30E064
:1001B000322F2227820F932F911D7C01F694E79412
:1001C0009C013695279536952795AC0163E05695A9
:1001D00047956A95E1F7242735272827392775E0C1
:1001E000969587957A95E1F78227932799278695A3
:1001F00097958827E82AF92ADF5FF801D083DF3F47
:1002000079F46F2D8CEF91E00E9484026E2D8BEFBC
:1002100091E00E948402299B0BC02998F80110826A
:10022000C701DF91CF911F910F91FF90EF9008953B
:10023000299AF4CFCF93DF931F92CDB7DEB784B75F
:10024000A89584B7877F84BF809160008861809380
:1002500060001092600082E08093BA0080917C0080
:10026000806480937C0085B78F7E85BF8AB18B7751
:100270008AB98BB184688BB926982E9A83E084B9A9
:1002800085B78F7E85BF84B18B7784B987B1887F2E
:1002900087B98AB187788AB985B1846885B988B108
:1002A000876088B98BB188678BB9609166008DEFE4
:1002B00091E00E948402499BFECF85E090E00E947D
:1002C000AF008EEF91E00E947C02182F80EF810F2B
:1002D000803E40F48FEF91E00E947C02181302C030
:1002E000109366001092C1001092C50080E18093C7
:1002F000C40082E08093C00088E18093C10086E062
:100300008093C20019824A9B02C01E9989B14A9902
:1003100006C01E9904C04F9B02C081E089834A99A0
:1003200006C01E9B04C04F9902C082E089834A9B8D
:1003300006C01E9904C04F9902C083E08983AE01B4
:100340004F5F5F4F61E581E00E944A0081E090E0ED
:100350000E94AF0084E48093BC008091BC0087FFC2
:10036000FCCF8091BB0080E00E94400086E5809336
:10037000BB0084E88093BC008091BC0087FFFCCF69
:1003800084E88093BC008091BC0081648093BC00B1
:1003900084E48093BC008091BC0087FFFCCF8091F7
:1003A000BB0084E88093BC008091BC0087FFFCCF39
:1003B0008091BB00813009F044C080E88093BC008C
:1003C00088E199E00FB6F894A895809360000FBE7D
:1003D0009093600019828CEF91E00E947C02811161
:1003E0000BC08BEF91E00E947C02811105C06FEF82
:1003F0008CEF91E00E94840210E000E0AEE9FA2E5A
:10040000B2E6EB2EDD24DA9483E0C82EBE016F5FE6
:100410007F4FC8010E94C0008C01BC01660F771F8E
:100420000E949700F0928500E0928400D6BAC092B4
:100430008100B09902C0A895FCCFB09A10928100BB
:10044000E5CF80E88093BC0088E199E00FB6F8948E
:10045000A895809360000FBE909360001982BE0142
:100460006F5F7F4F90E080E00E94C0008C01412CC4
:10047000512C32014394C12CD12C7601C394E3E07A
:10048000AE2EB12CC801B5010E94920230E020E0EE
:100490002817390791F0CC0CDD1CEE1CFF1CEE2454
:1004A000FF24C114D104E104F10421F4C12CD12CA6
:1004B0007601C3942F5F3F4FEBCF440C551C661C55
:1004C000771C66247724411451046104710421F4DB
:1004D000412C512C32014394B201C6010E94970075
:1004E00088E090E00E94AF00BE016F5F7F4FC801BF
:1004F0000E94C0008C01C6CFF999FECF92BD81BD8C
:10050000F89A992780B50895262FF999FECF1FBA3A
:1005100092BD81BD20BD0FB6F894FA9AF99A0FBE2C
:1005200001960895AA1BBB1B51E107C0AA1FBB1F60
:10053000A617B70710F0A61BB70B881F991F5A956F
:10054000A9F780959095BC01CD010895F894FFCF4F
:00000001FF
