:100000000C9434000C943E000C943E000C943E0082
:100010000C943E000C943E000C943E000C943E0068
:100020000C943E000C943E000C943E000C943E0058
:100030000C943E000C943E000C943E000C943E0048
:100040000C943E000C943E000C943E000C943E0038
:100050000C943E000C943E000C943E000C943E0028
:100060000C943E000C943E0011241FBECFEFD4E050
:10007000DEBFCDBF0E94C0000C945C020C94000057
:100080008093BB0084EC8093BC008091BC0087FF10
:10009000FCCF0895BF92CF92DF92EF92FF920F9321
:1000A0001F93CF93DF93C82F062F142FD52F84E4EF
:1000B0008093BC008091BC0087FFFCCF8091BB0087
:1000C0008C2F0E944000802F0E944000E12EFD2EC8
:1000D00010E000E00C2E000CDD0B6E0181E0C81A70
:1000E000D10884E8B82E0C171D07A4F4F7018191FC
:1000F0007F01C016D10659F48093BB00B092BC00BA
:100100008091BC0087FFFCCF0F5F1F4FECCF0E9498
:100110004000FACF80E88093BC00DF91CF911F911F
:100120000F91FF90EF90DF90CF90BF900895CF9305
:10013000DF9300D000D0CDB7DEB789839A836B837D
:100140007C83AE014F5F5F4F61E084E00E944A0014
:100150000F900F900F900F90DF91CF91089530E0A6
:1001600020E042EB55E046BD55BDA89BFECFA89AC6
:1001700015BCA8952F5F3F4F82179307A1F70895ED
:10018000CF93DF931F92CDB7DEB784B7A89584B71E
:10019000877F84BF809160008861809360001092A7
:1001A000600082E08093BA0080917C00806480933C
:1001B0007C0085B78F7E85BF8AB18B778AB98BB17A
:1001C00084688BB926982E9A83E084B985B78F7E90
:1001D00085BF84B18B7784B987B1887F87B98AB1AD
:1001E00087788AB985B1846885B988B1876088B90C
:1001F0008BB188678BB9609166008DEF91E00E94AA
:100200004E02499BFECF85E090E00E94AF008EEF4A
:1002100091E00E944602182F80EF810F803E40F44B
:100220008FEF91E00E944602181302C010936600FF
:100230001092C1001092C50080E18093C40082E05A
:100240008093C00088E18093C10086E08093C20063
:1002500019824A9B02C01E9989B14A9906C01E990B
:1002600004C04F9B02C081E089834A9906C01E9B4F
:1002700004C04F9902C082E089834A9B06C01E9940
:1002800004C04F9902C083E08983AE014F5F5F4F86
:1002900061E581E00E944A0081E090E00E94AF00A9
:1002A00084E48093BC008091BC0087FFFCCF8091E8
:1002B000BB0080E00E94400086E58093BB0084E89C
:1002C0008093BC008091BC0087FFFCCF84E88093C2
:1002D000BC008091BC0081648093BC0084E4809366
:1002E000BC008091BC0087FFFCCF8091BB0084E8FC
:1002F0008093BC008091BC0087FFFCCF8091BB0045
:10030000813009F08AC080E88093BC0088E199E0E0
:100310000FB6F894A895809360000FBE909360008C
:100320008CEF91E00E94460281110BC08BEF91E0AF
:100330000E944602811105C06FEF8CEF91E00E9490
:100340004E02F12C10E000E0AEE9EA2EB2E6DB2E20
:10035000CC24CA9483E0B82EC801F11012C00097D3
:1003600081F48CEF91E00E944602182F8BEF91E010
:100370000E944602212F30E0322F2227820F932F36
:10038000911D8C01169507959C01369527953695FC
:100390002795AC0163E0569547956A95E1F72427C8
:1003A00035272827392775E0969587957A95E1F7BF
:1003B000822793279927869597958827082B192BAD
:1003C000F3942FEFF21212C0612F8CEF91E00E9494
:1003D0004E02602F8BEF91E00E944E0285B1982F64
:1003E0009270F92E81FF13C02998F12CB801660F85
:1003F000771FC8010E949700E0928500D092840088
:10040000C6BAB0928100B09904C0A895FCCF299AD1
:10041000EDCFB09A109281009FCF80E88093BC000E
:10042000F12CE12C10E000E0C12C90E8D92EAA2498
:10043000A394B12CB601002E02C0769567950A945C
:10044000E2F7C501002E02C0880F991F0A94E2F757
:100450000E9497002FEF8DEE92E021508040904057
:10046000E1F700C00000E114F10429F40F5F1F4F11
:100470000031110529F401501109EE24E394F12C07
:1004800001151105B9F6F12CE12CD4CFF999FECF65
:1004900092BD81BDF89A992780B50895262FF999C4
:1004A000FECF1FBA92BD81BD20BD0FB6F894FA9A57
:0C04B000F99A0FBE01960895F894FFCF52
:00000001FF
