:100000000C9434000C943E000C943E000C943E0082
:100010000C943E000C943E000C943E000C943E0068
:100020000C943E000C943E000C943E000C943E0058
:100030000C943E000C943E000C943E000C943E0048
:100040000C943E000C943E000C943E000C943E0038
:100050000C943E000C943E000C943E000C943E0028
:100060000C943E000C943E0011241FBECFEFD4E050
:10007000DEBFCDBF0E9440000C943E010C940000F6
:1000800084B7A89584B7877F84BF8091600088611A
:10009000809360001092600082E08093BA008091AB
:1000A0007C00806480937C0085B78F7E85BF8AB199
:1000B0008B778AB98BB184688BB926982E9A83E0A6
:1000C00084B985B78F7E85BF84B18B7784B987B1BA
:1000D000887F87B98AB187788AB985B1846885B9FC
:1000E00088B1876088B98BB188678BB960916600E9
:1000F0008DEF91E00E940801499BFECF85E090E0E2
:1001000022EB35E026BD35BDA89BFECFA89A15BCD5
:10011000A8950197B9F78EEF91E00E940001C82FD2
:1001200080EF8C0F803E40F48FEF91E00E94000141
:10013000C81302C0C09366001092C1001092C5009F
:1001400080E18093C40082E08093C00088E18093C6
:10015000C10086E08093C200289A60EA70E04EE910
:10016000C2E6D3E020E431E01FEFE3E0F0E080916D
:100170006F00816080936F0040938500C09384007E
:10018000D0938100D901A61BB70BB09918C0289B4A
:100190000BC0289890E080E0A817B907B4F350E2AC
:1001A0005A95F1F70196F8CF289A90E080E0681709
:1001B00079075CF350E25A95F1F70196F8CFB09ABF
:1001C00085B18C7F85B940938500C093840016BBB0
:1001D000D0938100B09902C0A895FCCFB09A10923C
:1001E00081004F99C4CFCB01880F991FBF010E9496
:1001F00016016130710509F0BACF60EA70E0B7CF3F
:10020000F999FECF92BD81BDF89A992780B50895DE
:10021000262FF999FECF1FBA92BD81BD20BD0FB622
:10022000F894FA9AF99A0FBE0196089597FB072E53
:1002300016F4009407D077FD09D00E942A0107FC2C
:1002400005D03EF4909581959F4F089570956195E6
:100250007F4F0895AA1BBB1B51E107C0AA1FBB1FFC
:10026000A617B70710F0A61BB70B881F991F5A9542
:10027000A9F780959095BC01CD010895F894FFCF22
:00000001FF
