:100000000C9434000C943E000C943E000C943E0082
:100010000C943E000C943E000C943E000C943E0068
:100020000C943E000C943E000C943E000C943E0058
:100030000C943E000C943E000C943E000C943E0048
:100040000C943E000C943E000C943E000C943E0038
:100050000C943E000C943E000C943E000C943E0028
:100060000C943E000C943E0011241FBECFEFD4E050
:10007000DEBFCDBF0E9440000C94DB000C9400005A
:1000800084B7A89584B7877F84BF8091600088611A
:10009000809360001092600082E08093BA008091AB
:1000A0007C00806480937C0085B78F7E85BF8AB199
:1000B0008B778AB98BB184688BB926982E9A83E0A6
:1000C00084B985B78F7E85BF84B18B7784B987B1BA
:1000D000887F87B98AB187788AB985B1846885B9FC
:1000E00088B1876088B98BB188678BB960916600E9
:1000F0008DEF91E00E94CD00499BFECF85E090E01E
:1001000022EB35E026BD35BDA89BFECFA89A15BCD5
:10011000A8950197B9F78EEF91E00E94C500C82F0E
:1001200080EF8C0F803E40F48FEF91E00E94C5007D
:10013000C81302C0C09366001092C1001092C5009F
:1001400080E18093C40082E08093C00088E18093C6
:10015000C10086E08093C20080E022E04A9902C09C
:100160008F5F81704A9BFECF95B1813061F09227FD
:1001700095B93FEF41EE94E0315040409040E1F7B7
:1001800000C00000EBCF9827F3CFF999FECF92BDC6
:1001900081BDF89A992780B50895262FF999FECF49
:1001A0001FBA92BD81BD20BD0FB6F894FA9AF99A94
:0A01B0000FBE01960895F894FFCFEA
:00000001FF
