:100000000C9434000C943E000C943E000C943E0082
:100010000C943E000C943E000C943E000C943E0068
:100020000C943E000C943E000C943E000C943E0058
:100030000C943E000C943E000C943E000C943E0048
:100040000C943E000C943E000C943E000C943E0038
:100050000C943E000C943E000C943E000C943E0028
:100060000C943E000C943E0011241FBECFEFD4E050
:10007000DEBFCDBF0E9440000C9428010C9400000C
:1000800084B7A89584B7877F84BF8091600088611A
:10009000809360001092600082E08093BA008091AB
:1000A0007C00806480937C0085B78F7E85BF8AB199
:1000B0008B778AB98BB184688BB926982E9A83E0A6
:1000C00084B985B78F7E85BF84B18B7784B987B1BA
:1000D000887F87B98AB187788AB985B1846885B9FC
:1000E00088B1876088B98BB188678BB960916600E9
:1000F0008DEF91E00E94F200499BFECF85E090E0F9
:1001000022EB35E026BD35BDA89BFECFA89A15BCD5
:10011000A8950197B9F78EEF91E00E94EA00C82FE9
:1001200080EF8C0F803E40F48FEF91E00E94EA0058
:10013000C81302C0C09366001092C1001092C5009F
:1001400080E18093C40082E08093C00088E18093C6
:10015000C10086E08093C200289A4F99FECF60EAE2
:1001600070E090E080E0E0E4F1E0C3E0D0E0289BC4
:100170000FC0289830E020E0AF01461B570B421714
:10018000530794F0A0E2AA95F1F72F5F3F4FF7CF06
:10019000289A30E020E06217730734F040E24A9575
:1001A000F1F72F5F3F4FF7CF019684369105FCF2B0
:1001B0004F99DDCFCB01880F991FBE010E9400012E
:1001C0006130710521F44F9BFECF60EA70E090E052
:1001D00080E0CDCFF999FECF92BD81BDF89A9927E5
:1001E00080B50895262FF999FECF1FBA92BD81BD23
:1001F00020BD0FB6F894FA9AF99A0FBE01960895A9
:1002000097FB072E16F4009407D077FD09D00E94C3
:10021000140107FC05D03EF4909581959F4F0895F9
:10022000709561957F4F0895AA1BBB1B51E107C0D4
:10023000AA1FBB1FA617B70710F0A61BB70B881F76
:10024000991F5A95A9F780959095BC01CD01089505
:04025000F894FFCF50
:00000001FF
