:100000000C9434000C943E000C943E000C943E0082
:100010000C943E000C943E000C943E000C943E0068
:100020000C943E000C943E000C943E000C943E0058
:100030000C943E000C943E000C943E000C943E0048
:100040000C943E000C943E000C943E000C943E0038
:100050000C943E000C943E000C943E000C943E0028
:100060000C943E000C943E0011241FBECFEFD4E050
:10007000DEBFCDBF0E9452000C9422010C94000000
:1000800030E020E042EB55E02817390751F046BD3B
:1000900055BDA89BFECFA89A15BCA8952F5F3F4FD2
:1000A000F3CF089584B7A89584B7877F84BF8091E4
:1000B00060008861809360001092600082E080930D
:1000C000BA0080917C00806480937C0085B78F7E2D
:1000D00085BF8AB18B778AB98BB184688BB9269832
:1000E0002E9A83E084B985B78F7E85BF84B18B77E4
:1000F00084B987B1887F87B98AB187788AB985B191
:10010000846885B988B1876088B98BB188678BB9F5
:10011000609166008DEF91E00E940801499BFECF3F
:1001200085E090E00E9440008EEF91E00E94000187
:10013000C82F80EF8C0F803E40F48FEF91E00E943B
:100140000001C81302C0C09366001092C100109253
:10015000C50080E18093C40082E08093C00088E104
:100160008093C10086E08093C2008CEF91E00E94F2
:100170000001C82FD0E09E0135952795359527952C
:10018000CE0143E0959587954A95E1F728272C27DE
:10019000CE0154E0959587955A95E1F72827279544
:1001A00022272795D595C795C22B6C2F8CEF91E010
:1001B0000E9408018C2F62E30E941601892F90E0B3
:1001C0000E9440008AEF91E00E94000180FF16C06B
:1001D000299A8AEF91E00E94000161E0680F8AEF9E
:1001E00091E00E94080188E199E00FB6F894A89583
:1001F000809360000FBE90936000FFCF289AE9CFF4
:10020000F999FECF92BD81BDF89A992780B50895DE
:10021000262FF999FECF1FBA92BD81BD20BD0FB622
:10022000F894FA9AF99A0FBE01960895991B79E00D
:1002300004C0991F961708F0961B881F7A95C9F776
:0802400080950895F894FFCFAA
:00000001FF
