:100000000C9434000C943E000C943E000C943E0082
:100010000C943E000C943E000C943E000C943E0068
:100020000C943E000C943E000C943E000C943E0058
:100030000C943E000C943E000C943E000C943E0048
:100040000C943E000C943E000C943E000C943E0038
:100050000C943E000C943E000C943E000C943E0028
:100060000C943E000C943E0011241FBECFEFD4E050
:10007000DEBFCDBF0E9452000C944C010C940000D6
:1000800030E020E042EB55E02817390754F446BD34
:1000900055BDA89BFECFA89A15BCA8952F5F3F4FD2
:1000A000F3CF089584B7A89584B7877F84BF8091E4
:1000B00060008861809360001092600082E080930D
:1000C000BA0080917C00806480937C0085B78F7E2D
:1000D00085BF8AB18B778AB98BB184688BB9269832
:1000E0002E9A83E084B985B78F7E85BF84B18B77E4
:1000F00084B987B1887F87B98AB187788AB985B191
:10010000846885B988B1876088B98BB188678BB9F5
:10011000609166008DEF91E00E941601499BFECF31
:1001200085E090E00E9440008EEF91E00E940E0179
:10013000C82F80EF8C0F803E40F48FEF91E00E943B
:100140000E01C81302C0C09366001092C100109245
:10015000C50080E18093C40082E08093C00088E104
:100160008093C10086E08093C20002E3C3E0D0E048
:1001700085B18C7F85B98CEF91E00E940E0190E0F3
:100180009C013595279535952795AC0163E05595EC
:1001900047956A95E1F724272827AC0174E0559527
:1001A00047957A95E1F72427279522272795959556
:1001B0008795122F182B612F8CEF91E00E9416016A
:1001C0001370113029F110F1123021F1E02E002EC0
:1001D000000CFF08C7010E9440004A9907C0C701F0
:1001E000880F991FBE010E942401062F4A9BFECF53
:1001F00003300CF0BDCF88E199E00FB6F894A895D4
:10020000809360000FBE90936000FFCF299ADECFED
:10021000289ADCCF85B1836085B9D8CFF999FECF14
:1002200092BD81BDF89A992780B50895262FF99936
:10023000FECF1FBA92BD81BD20BD0FB6F894FA9AC9
:10024000F99A0FBE0196089597FB072E16F40094B5
:1002500007D077FD09D00E94380107FC05D03EF495
:10026000909581959F4F0895709561957F4F089562
:10027000AA1BBB1B51E107C0AA1FBB1FA617B707CC
:1002800010F0A61BB70B881F991F5A95A9F78095E8
:0C0290009095BC01CD010895F894FFCFBB
:00000001FF
