:100000000C9434000C9446000C9446000C94C800E8
:100010000C9446000C9446000C9446000C94460048
:100020000C9446000C9446000C9446000C94460038
:100030000C9446000C9446000C9446000C94460028
:100040000C9446000C9446000C9446000C94460018
:100050000C9446000C9446000C9446000C94460008
:100060000C9446000C94460011241FBECFEFD4E040
:10007000DEBFCDBF21E0A0E0B1E001C01D92A630FF
:10008000B207E1F70E94FD000C94D3020C9400002B
:100090008093BB0084EC8093BC008091BC0087FF00
:1000A000FCCF0895BF92CF92DF92EF92FF920F9311
:1000B0001F93CF93DF93C82F062F142FD52F84E4DF
:1000C0008093BC008091BC0087FFFCCF8091BB0077
:1000D0008C2F0E944800802F0E944800E12EFD2EA8
:1000E00010E000E00C2E000CDD0B6E0181E0C81A60
:1000F000D10884E8B82E0C171D07A4F4F7018191EC
:100100007F01C016D10659F48093BB00B092BC00A9
:100110008091BC0087FFFCCF0F5F1F4FECCF0E9488
:100120004800FACF80E88093BC00DF91CF911F9107
:100130000F91FF90EF90DF90CF90BF900895CF93F5
:10014000DF9300D000D0CDB7DEB789839A836B836D
:100150007C83AE014F5F5F4F61E084E00E945200FC
:100160000F900F900F900F90DF91CF91089530E096
:1001700020E042EB55E046BD55BDA89BFECFA89AB6
:1001800015BCA8952F5F3F4F82179307A1F70895DD
:100190001F920F920FB60F9211242F933F938F93BC
:1001A0009F931E9921C08091050181111DC020914E
:1001B00003013091040180910101909102012823F3
:1001C0003923232B71F02091030130910401809594
:1001D00090958223932390930401809303011092BE
:1001E000000181E0809305019F918F913F912F91B4
:1001F0000F900FBE0F901F901895CF93DF931F9213
:10020000CDB7DEB784B7A89584B7877F84BF8091C8
:1002100060008861809360001092600082E08093AB
:10022000BA0080917C00806480937C0085B78F7ECB
:1002300085BF8AB18B778AB98BB184688BB92698D0
:100240002E9A83E084B985B78F7E85BF84B18B7782
:1002500084B987B1887F87B98AB187788AB985B12F
:10026000846885B988B1876088B98BB188678BB994
:10027000609166008DEF91E00E94C502499BFECF20
:1002800085E090E00E94B7008EEF91E00E94BD02F1
:10029000182F80EF810F803E40F48FEF91E00E9495
:1002A000BD02181302C0109366001092C100109294
:1002B000C50080E18093C40082E08093C00088E1A3
:1002C0008093C10086E08093C20019824A9B02C0DD
:1002D0001E9989B14A9906C01E9904C04F9B02C05D
:1002E00081E089834A9906C01E9B04C04F9902C0D1
:1002F00082E089834A9B06C01E9904C04F9902C0C0
:1003000083E08983AE014F5F5F4F61E581E00E942A
:10031000520081E090E00E94B70084E48093BC002A
:100320008091BC0087FFFCCF8091BB0080E00E94E1
:10033000480086E58093BB0084E88093BC008091F0
:10034000BC0087FFFCCF84E88093BC008091BC0098
:1003500081648093BC0084E48093BC008091BC00E5
:1003600087FFFCCF8091BB0084E88093BC00809124
:10037000BC0087FFFCCF8091BB00813009F08AC0B0
:1003800080E88093BC0088E199E00FB6F894A895C6
:10039000809360000FBE909360008CEF91E00E940C
:1003A000BD0281110BC08BEF91E00E94BD02811153
:1003B00005C06FEF8CEF91E00E94C502F12C10E0B8
:1003C00000E0AEE9EA2EB2E6DB2ECC24CA9483E04C
:1003D000B82EC801F11012C0009781F48CEF91E0A3
:1003E0000E94BD02182F8BEF91E00E94BD02212FC9
:1003F00030E0322F2227820F932F911D8C0116950A
:1004000007959C013695279536952795AC0163E0B5
:10041000569547956A95E1F72427352728273927E8
:1004200075E0969587957A95E1F782279327992726
:10043000869597958827082B192BF3948FEFF81240
:1004400012C0612F8CEF91E00E94C502602F8BEFEC
:1004500091E00E94C50285B1982F9270F92E81FF1C
:1004600013C02998F12CB801660F771FC8010E94AC
:100470009F00E0928500D0928400C6BAB0928100BD
:10048000B09904C0A895FCCF299AEDCFB09A1092EC
:1004900081009FCF80E88093BC008FE39CE90197A7
:1004A000F1F700C00000789480916800816080932B
:1004B000680080916B00806480936B008FEF9FEFEA
:1004C0009093040180930301DD24D394EE24E394FC
:1004D000F12C8091030190910401892BC9F1D092F4
:1004E000050184E190E00E94B700D0920001F092F3
:1004F0000201E092010180910001882351F30091F3
:100500000101109102010130110511F41092050151
:1005100060910301709104018091030190910401A5
:100520006095709560277127802391230E949F001A
:100530008AE090E00E94B70017FF03C0109200010C
:10054000DACF000F111F1093020100930101D3CFE6
:100550006FEF7FEF90E080E00E949F0088EC90E0DA
:100560000E94B70088E199E00FB6F894A8958093AF
:1005700060000FBE90936000FFCFF999FECF92BD4F
:1005800081BDF89A992780B50895262FF999FECF55
:100590001FBA92BD81BD20BD0FB6F894FA9AF99AA0
:0A05A0000FBE01960895F894FFCFF6
:00000001FF
