:100000000C9434000C9449000C9449000C94490061
:100010000C9449000C9449000C9449000C9449003C
:100020000C9449000C9449000C9449000C9449002C
:100030000C9449000C9449000C9449000C9449001C
:100040000C9449000C9449000C9449000C9449000C
:100050000C9449000C9449000C9449000C944900FC
:100060000C9449000C94490011241FBECFEFD4E03A
:10007000DEBFCDBF11E0A0E0B1E0E0EBF4E002C0F4
:1000800005900D92A430B107D9F70E94B3000C94EB
:1000900056020C9400008093BB0084EC8093BC005B
:1000A0008091BC0087FFFCCF0895BF92CF92DF9272
:1000B000EF92FF920F931F93CF93DF93C82F062FDA
:1000C000142FD52F84E48093BC008091BC0087FF5F
:1000D000FCCF8091BB008C2F0E944B00802F0E9490
:1000E0004B00E12EFD2E10E000E00C2E000CDD0B8D
:1000F0006E0181E0C81AD10884E8B82E0C171D07DC
:10010000A4F4F70181917F01C016D10659F48093C0
:10011000BB00B092BC008091BC0087FFFCCF0F5F9A
:100120001F4FECCF0E944B00FACF80E88093BC00B9
:10013000DF91CF911F910F91FF90EF90DF90CF90C3
:10014000BF90089530E020E042EB55E046BD55BD3C
:10015000A89BFECFA89A15BCA8952F5F3F4F82178A
:100160009307A1F70895CF93DF9300D000D0CDB7C8
:10017000DEB784B7A89584B7877F84BF809160007D
:100180008861809360001092600082E08093BA00E2
:1001900080917C00806480937C0085B78F7E85BFD2
:1001A0008AB18B778AB98BB184688BB926982E9ADD
:1001B00083E084B985B78F7E85BF84B18B7784B99E
:1001C00087B1887F87B98AB187788AB985B1846811
:1001D00085B988B1876088B98BB188678BB9609120
:1001E00066008DEF91E00E944802499BFECF85E0BA
:1001F00090E00E94A2008EEF91E00E944002182F32
:1002000080EF810F803E40F48FEF91E00E9440022A
:10021000181302C0109366001092C1001092C5001E
:1002200080E18093C40082E08093C00088E18093E5
:10023000C10086E08093C20019824A9B02C01E99C9
:1002400089B14A9906C01E9904C04F9B02C081E043
:1002500089834A9906C01E9B04C04F9902C082E060
:1002600089834A9B06C01E9904C04F9902C083E04F
:100270008983AE014F5F5F4F61E581E00E945500C9
:1002800081E090E00E94A20084E48093BC00809111
:10029000BC0087FFFCCF8091BB0080E00E944B0038
:1002A00086E58093BB0084E88093BC008091BC000D
:1002B00087FFFCCF84E88093BC008091BC00816400
:1002C0008093BC0084E48093BC008091BC0087FFD5
:1002D000FCCF8091BB0084E88093BC008091BC007F
:1002E00087FFFCCF8091BB00813009F092C080E88D
:1002F0008093BC0088E199E00FB6F894A8958093AC
:1003000060000FBE909360008CEF91E00E9440026D
:1003100081110BC08BEF91E00E944002811105C05A
:100320006FEF8CEF91E00E944802F12C10E000E0AA
:10033000AEE9EA2EB2E6DB2ECC24CA9483E0B82ED6
:10034000C801F11012C0009781F48CEF91E00E9477
:100350004002182F8BEF91E00E944002212F30E0E5
:10036000322F2227820F932F911D8C01169507950E
:100370009C013695279536952795AC0163E05695F7
:1003800047956A95E1F7242735272827392775E00F
:10039000969587957A95E1F78227932799278695F1
:1003A00097958827082B192BF3948FEFF81212C01A
:1003B000612F8CEF91E00E944802602F8BEF91E05B
:1003C0000E94480285B1982F9270F92E81FF1BC0C0
:1003D0002998F12CC801880F991F09831A838B83F0
:1003E0009C83AE014F5F5F4F61E084E00E94550047
:1003F000E0928500D0928400C6BAB0928100B09994
:1004000004C0A895FCCF299AE5CFB09A109281003C
:1004100097CF80E88093BC00E0E0F1E028EC31E089
:100420008191882349F09091C00095FFFCCF809383
:10043000C6002E173F07A1F781E29091C00095FFFB
:10044000FCCF8093C600EFE3FCE93197F1F700C0E1
:1004500000008F5FA8958F3781F78091C00087FDDE
:1004600002C0A895FACF8091C60088E199E00FB646
:10047000F894A895809360000FBE90936000FFCF22
:10048000F999FECF92BD81BDF89A992780B508955C
:10049000262FF999FECF1FBA92BD81BD20BD0FB6A0
:1004A000F894FA9AF99A0FBE01960895F894FFCF3E
:0404B0000D0A000031
:00000001FF
