:100000000C9434000C9451000C9451000C94510049
:100010000C9451000C9451000C9451000C9451001C
:100020000C9451000C9451000C9451000C9451000C
:100030000C9451000C9451000C9451000C945100FC
:100040000C9451000C9451000C9451000C945100EC
:100050000C9451000C9451000C9451000C945100DC
:100060000C9451000C94510011241FBECFEFD4E02A
:10007000DEBFCDBF11E0A0E0B1E0E0EAF7E002C0F2
:1000800005900D92AE36B107D9F721E0AEE6B1E0AA
:1000900001C01D92AF36B207E1F70E943C010C94FB
:1000A000CE030C9400008093BB0084E88093BC00D6
:1000B0008091BC0087FFFCCF08958093BB0084EC47
:1000C0008093BC008091BC0087FFFCCF0895CF9245
:1000D000DF92EF92FF920F931F93CF93DF93C82F7E
:1000E000062F142FD52F84E48093BC008091BC0090
:1000F00087FFFCCF8091BB008C2F0E945D00802F7A
:100100000E945D00E12EFD2E10E000E00C2E000CA0
:10011000DD0B6E0181E0C81AD1080C171D0774F4BD
:10012000F70181917F01C016D10629F40E94530086
:100130000F5F1F4FF2CF0E945D00FACF80E88093DF
:10014000BC00DF91CF911F910F91FF90EF90DF9056
:10015000CF9008959091C00095FFFCCF8093C6008A
:1001600008958F929F92AF92BF92CF92DF92EF92BB
:10017000FF920F931F93CF93DF93CDB7DEB72C97EA
:100180000FB6F894DEBF0FBECDBF9E012F5F3F4F6D
:100190007901690110E000E02AE0822E912CA12C67
:1001A000B12C0F5F1F4FA50194010E948D03605D6C
:1001B000F60161936F01B901CA01161617061806F8
:1001C00019067CF30E0D1F1DF8011082F8018291B3
:1001D0008F010E94AA000E151F05C1F780E22C9620
:1001E0000FB6F894DEBF0FBECDBFDF91CF911F9148
:1001F0000F91FF90EF90DF90CF90BF90AF909F90C6
:100200008F900C94AA000F931F93CF93DF93EC0170
:100210008C0108531F4F8991882329F00E94AA005E
:10022000C017D107C1F7DF91CF911F910F910895AA
:1002300030E020E04091C00047FD0BC02F5F3F4FF2
:10024000A89521344FE13407ACF3019789F780E09A
:10025000089581E0089530E020E042EB55E046BD8E
:1002600055BDA89BFECFA89A15BCA8952F5F3F4F00
:1002700082179307A1F70895CF93DF93CDB7DEB729
:100280002C970FB6F894DEBF0FBECDBF04B603FEA9
:1002900003C081E080936E01A89584B7877F84BFF7
:1002A000809160008861809360001092600082E01D
:1002B0008093BA0080917C00806480937C0085B735
:1002C0008F7E85BF8AB18B778AB98BB184688BB9F1
:1002D00026982E9A83E084B985B78F7E85BF84B136
:1002E0008B7784B987B1887F87B98AB187788AB9D3
:1002F00085B1846885B988B1876088B98BB1886712
:100300008BB9609166008DEF91E00E947F03499B5D
:10031000FECF85E090E00E942B018EEF91E00E94DD
:100320007703182F80EF810F803E40F48FEF91E02C
:100330000E947703181302C0109366001092C10048
:100340001092C50080E18093C40082E08093C000D9
:1003500088E18093C10086E08093C20019824A9BA5
:1003600002C01E9989B14A9906C01E9904C04F9BCC
:1003700002C081E089834A9906C01E9B04C04F9940
:1003800002C082E089834A9B06C01E9904C04F992F
:1003900002C083E08983AE014F5F5F4F61E581E07A
:1003A0000E94670081E090E00E942B0184E480932A
:1003B000BC008091BC0087FFFCCF8091BB0080E037
:1003C0000E945D0086E50E94530084E88093BC0093
:1003D0008091BC0081648093BC0084E48093BC0065
:1003E0008091BC0087FFFCCF8091BB0084E88093A4
:1003F000BC008091BC0087FFFCCF8091BB008130A6
:1004000009F092C080E88093BC0088E199E00FB6C3
:10041000F894A895809360000FBE909360008CEFD5
:1004200091E00E94770381110BC08BEF91E00E9455
:100430007703811105C06FEF8CEF91E00E947F037D
:10044000F12C10E000E08EE9E82E92E6D92ECC24C3
:10045000CA9423E0B22EC801F11012C0009781F4B3
:100460008CEF91E00E947703182F8BEF91E00E94B0
:100470007703212F30E0322F2227820F932F911DF7
:100480008C01169507959C013695279536952795ED
:10049000AC01E3E056954795EA95E1F72427352727
:1004A00028273927F5E096958795FA95E1F7822771
:1004B00093279927869597958827082B192BF394CE
:1004C0008FEFF81212C0612F8CEF91E00E947F0332
:1004D000602F8BEF91E00E947F0385B1982F92707F
:1004E000F92E81FF1BC02998F12CC801880F991F94
:1004F00009831A838B839C83AE014F5F5F4F61E05A
:1005000084E00E946700E0928500D0928400C6BA21
:10051000B0928100B09904C0A895FCCF299AE5CF8C
:10052000B09A1092810097CF80E88093BC008091B0
:100530006E01811112C080E091E00E9403011982D6
:100540001A821B821C821D821E821F821886809145
:10055000C00087FD05C0A895FACF89E591E0EDCFF1
:100560008091C60090ED980F9A3088F78983AE018C
:100570004F5F5F4F64E088E00E94670088E090E092
:100580000E9418018823D1F38091C6008D3019F0A4
:100590008A3009F087C081E090E00E941801811143
:1005A0008091C60084E48093BC008091BC0087FFEA
:1005B000FCCF8091BB0080E00E945D0089E40E9436
:1005C000530084E88093BC0084E48093BC00809155
:1005D000BC0087FFFCCF8091BB00C12CD12C7601E1
:1005E00090E080E024EC34E88330910509F06EC09F
:1005F0003093BC004091BC0047FFFCCF4091BB0052
:10060000C40ED11CE11CF11C01968430910561F7E8
:1006100080E88093BC0086E591E00E940301C70159
:10062000B6010E94B10089E691E00E940301812C8D
:10063000912C5401839490E1492E97E2592E612C1C
:10064000712CC701B601A50194010E948D03672B8F
:10065000682B692B21F4C501B4010E94B1008FEF12
:10066000881A980AA80AB80AC501B401A301920120
:100670000E948D03672B682B692B21F48BE691E098
:100680000E9403018C149D04AE04BF04D4F288E1DF
:1006900099E00FB6F894A895809360000FBE9093F0
:1006A0006000FFCF90ED980F9A3008F067CF9F81E0
:1006B00098879E819F839D819E839C819D839B8142
:1006C0009C839A819B8399819A8350CF2093BC000D
:1006D0004091BC0047FFFCCF4091BB00C40ED11C31
:1006E000E11CF11CFE2CED2CDC2CCC248DCFF999D7
:1006F000FECF92BD81BDF89A992780B50895262F27
:10070000F999FECF1FBA92BD81BD20BD0FB6F894F6
:10071000FA9AF99A0FBE01960895052E97FB1EF4DA
:1007200000940E94A40357FD07D00E94AC0307FC6D
:1007300003D04EF40C94A403509540953095219528
:100740003F4F4F4F5F4F08959095809570956195FD
:100750007F4F8F4F9F4F0895A1E21A2EAA1BBB1BFC
:10076000FD010DC0AA1FBB1FEE1FFF1FA217B3077D
:10077000E407F50720F0A21BB30BE40BF50B661F93
:10078000771F881F991F1A9469F760957095809557
:1007900090959B01AC01BD01CF010895F894FFCF66
:1007A0000D0A456E74657220696E74656765722006
:1007B0006E756D6265723A202050434220726574F6
:1007C00075726E7320616C6C20666163746F7273F6
:1007D000206F662074686174206E756D6265722E7C
:1007E0002850726573732073773120746F206361B2
:1007F0006E63656C2E290D0A000D0A4E6577206E1A
:0E080000756D6265723F0D0A0009002E000042
:00000001FF
