:100000000C9434000C9451000C9451000C94510049
:100010000C9451000C9451000C9451000C9451001C
:100020000C9451000C9451000C9451000C9451000C
:100030000C9451000C9451000C9451000C945100FC
:100040000C9451000C9451000C9451000C945100EC
:100050000C9451000C9451000C9451000C945100DC
:100060000C9451000C94510011241FBECFEFD4E02A
:10007000DEBFCDBF11E0A0E0B1E0E2EBF7E002C0EF
:1000800005900D92AC33B107D9F721E0ACE3B1E0B4
:1000900001C01D92A834B207E1F70E94ED010C9453
:1000A000D7030C9400008093BB0084E88093BC00CD
:1000B0008091BC0087FFFCCF08958093BB0084EC47
:1000C0008093BC008091BC0087FFFCCF0895CF9245
:1000D000DF92EF92FF920F931F93CF93DF93C82F7E
:1000E000062F142FD52F84E48093BC008091BC0090
:1000F00087FFFCCF8091BB008C2F0E945D00802F7A
:100100000E945D00E12EFD2E10E000E00C2E000CA0
:10011000DD0B6E0181E0C81AD1080C171D0774F4BD
:10012000F70181917F01C016D10629F40E94530086
:100130000F5F1F4FF2CF0E945D00FACF80E88093DF
:10014000BC00DF91CF911F910F91FF90EF90DF9056
:10015000CF9008959091C00095FFFCCF8093C6008A
:100160000895CF92DF92EF92FF920F931F93CF9358
:10017000DF93CDB7DEB72C970FB6F894DEBF0FBE76
:10018000CDBF282F77FF47C08A3009F044C0719552
:10019000619571093DE2CB01AE014F5F5F4F7A017E
:1001A000FA0110E000E0C22E022E000CDD08B601BC
:1001B0000E94C30380838A3080F5805D80830F5F57
:1001C0001F4FCB013196672B91F7F701E00FF11F1D
:1001D00010823D3229F42A3019F48DE20E94AA00DF
:1001E0000E0D1F1DF80182918F010E94AA00E016DA
:1001F000F106C1F780E22C960FB6F894DEBF0FBE71
:10020000CDBFDF91CF911F910F91FF90EF90DF90C5
:10021000CF900C94AA003BE2BECF895CCFCF0F9366
:100220001F93CF93DF93EC018C0108531F4F8991EB
:10023000882329F00E94AA00C017D107C1F7DF91D7
:10024000CF911F910F91089530E020E04091C000C0
:1002500047FD0BC02F5F3F4FA89521344FE1340776
:10026000ACF3019789F780E0089581E0089510923A
:100270003C0110923D0110923E0110923F011092FC
:10028000400110924101109242011092430180916D
:10029000C00087FD02C0A895FACF8091C60090EDFE
:1002A000980F9A30A0F780933C014CE351E064E052
:1002B00088E00E94670088E090E00E942401882383
:1002C000D1F38091C6008D3019F08A3009F041C019
:1002D00081E090E00E94240181118091C60084E4B5
:1002E0008093BC008091BC0087FFFCCF8091BB0055
:1002F00080E00E945D0089E40E94530084E88093BE
:10030000BC0084E48093BC008091BC0087FFFCCFDC
:100310008091BB0060E070E0CB0130E020E044EC75
:1003200054E823303105B9F55093BC00E091BC008E
:10033000E7FFFCCFE091BB006E0F711D811D911D89
:100340002F5F3F4F2430310561F720E82093BC0038
:10035000089590ED980F9A3008F0ADCF909142013A
:1003600090934301909141019093420190914001FB
:100370009093410190913F019093400190913E01F3
:1003800090933F0190913D0190933E0190913C01EB
:1003900090933D0188CF4093BC00E091BC00E7FF03
:1003A000FCCFE091BB006E0F711D811D911D982F38
:1003B000872F762F6627C4CF30E020E042EB55E050
:1003C00046BD55BDA89BFECFA89A15BCA8952F5F2A
:1003D0003F4F82179307A1F70895CF93DF9300D083
:1003E00000D0CDB7DEB784B7A89584B7877F84BF28
:1003F000809160008861809360001092600082E0CC
:100400008093BA0080917C00806480937C0085B7E3
:100410008F7E85BF8AB18B778AB98BB184688BB99F
:1004200026982E9A83E084B985B78F7E85BF84B1E4
:100430008B7784B987B1887F87B98AB187788AB981
:1004400085B1846885B988B1876088B98BB18867C0
:100450008BB9609166008DEF91E00E94B503499BD6
:10046000FECF85E090E00E94DC018EEF91E00E94DB
:10047000AD03182F80EF810F803E40F48FEF91E0A5
:100480000E94AD03181302C0109366001092C100C1
:100490001092C50080E18093C40082E08093C00088
:1004A00088E18093C10086E08093C20019824A9B54
:1004B00002C01E9989B14A9906C01E9904C04F9B7B
:1004C00002C081E089834A9906C01E9B04C04F99EF
:1004D00002C082E089834A9B06C01E9904C04F99DE
:1004E00002C083E08983AE014F5F5F4F61E581E029
:1004F0000E94670081E090E00E94DC0184E4809328
:10050000BC008091BC0087FFFCCF8091BB0080E0E5
:100510000E945D0086E50E94530084E88093BC0041
:100520008091BC0081648093BC0084E48093BC0013
:100530008091BC0087FFFCCF8091BB0084E8809352
:10054000BC008091BC0087FFFCCF8091BB00813054
:1005500009F092C080E88093BC0088E199E00FB672
:10056000F894A895809360000FBE909360008CEF84
:1005700091E00E94AD0381110BC08BEF91E00E94CE
:10058000AD03811105C06FEF8CEF91E00E94B503C0
:10059000F12C10E000E0AEE9EA2EB2E6DB2ECC242E
:1005A000CA9483E0B82EC801F11012C0009781F4FC
:1005B0008CEF91E00E94AD03182F8BEF91E00E9429
:1005C000AD03212F30E0322F2227820F932F911D70
:1005D0008C01169507959C0136952795369527959C
:1005E000AC0163E0569547956A95E1F724273527D6
:1005F0002827392775E0969587957A95E1F7822720
:1006000093279927869597958827082B192BF3947C
:100610002FEFF21212C0612F8CEF91E00E94B50310
:10062000602F8BEF91E00E94B50385B1382F3270B7
:10063000F32E81FF1BC02998F12CC801880F991F48
:1006400009831A838B839C83AE014F5F5F4F61E008
:1006500084E00E946700E0928500D0928400C6BAD0
:10066000B0928100B09904C0A895FCCF299AE5CF3B
:10067000B09A1092810097CF80E88093BC0080E010
:1006800091E00E940F010E9437018B018AE00E94D5
:10069000B1000E9437016B018AE00E94B10085E33E
:1006A00091E00E940F018FE0A82EB12CB8018AE0E2
:1006B0000E94B10089E00E94AA00B80180E10E9476
:1006C000B10089E00E94AA00F12CE12CC5018E192D
:1006D0009F09980102C0359527958A95E2F720FF7A
:1006E0001DC081E30E94AA00C70183709927039768
:1006F00021F488E391E00E940F013FEFE31AF30A2F
:1007000080E1E816F10411F785E391E00E940F0102
:100710008091C00087FD04C0A895FACF80E3E2CFA6
:100720008091C600893739F08A3741F0883751F413
:100730000C0D1D1DBBCF0C191D09B8CF11950195CE
:100740001109B4CF88E199E00FB6F894A895809389
:1007500060000FBE90936000FFCFF999FECF92BD6D
:1007600081BDF89A992780B50895262FF999FECF73
:100770001FBA92BD81BD20BD0FB6F894FA9AF99ABE
:100780000FBE01960895AA1BBB1B51E107C0AA1F0B
:10079000BB1FA617B70710F0A61BB70B881F991F22
:1007A0005A95A9F780959095BC01CD010895F894CC
:0207B000FFCF79
:1007B200456E74657220706F736974697665206E18
:1007C200756D62657220616E6420696E6372656D1B
:1007D200656E74207468656E2078206F72207920AF
:0C07E2006F7220414B0D0A002020000027
:00000001FF
