:100000000C9434000C9449000C9449000C94490061
:100010000C9449000C9449000C9449000C9449003C
:100020000C9449000C9449000C9449000C9449002C
:100030000C9449000C9449000C9449000C9449001C
:100040000C9449000C9449000C9449000C9449000C
:100050000C9449000C9449000C9449000C944900FC
:100060000C9449000C94490011241FBECFEFD4E03A
:10007000DEBFCDBF11E0A0E0B1E0E2E2FBE002C0F4
:1000800005900D92AE34B107D9F70E94E2000C94AE
:100090008F050C9400008093BB0084E88093BC0023
:1000A0008091BC0087FFFCCF08958093BB0084EC57
:1000B0008093BC008091BC0087FFFCCF0895CF9255
:1000C000DF92EF92FF920F931F93CF93DF93C82F8E
:1000D000062F142FD52F84E48093BC008091BC00A0
:1000E00087FFFCCF8091BB008C2F0E945500802F92
:1000F0000E945500E12EFD2E10E000E00C2E000CB9
:10010000DD0B6E0181E0C81AD1080C171D0774F4CD
:10011000F70181917F01C016D10629F40E944B009E
:100120000F5F1F4FF2CF0E945500FACF80E88093F7
:10013000BC00DF91CF911F910F91FF90EF90DF9066
:10014000CF9008959091C00095FFFCCF8093C6009A
:1001500008950F931F93CF93DF93EC018C01085305
:100160001F4F8991882329F00E94A200C017D10750
:10017000C1F7DF91CF911F910F91089530E020E0FA
:100180004091C00047FD0BC02F5F3F4FA895213421
:100190004FE13407ACF3019789F780E0089581E0DF
:1001A000089530E020E042EB55E046BD55BDA89BE8
:1001B000FECFA89A15BCA8952F5F3F4F82179307D3
:1001C000A1F70895CF93DF93CDB7DEB7CD54D340D9
:1001D0000FB6F894DEBF0FBECDBF84B7A89584B725
:1001E000877F84BF80916000886180936000109257
:1001F000600082E08093BA0080917C0080648093EC
:100200007C0085B78F7E85BF8AB18B778AB98BB129
:1002100084688BB926982E9A83E084B985B78F7E3F
:1002200085BF84B18B7784B987B1887F87B98AB15C
:1002300087788AB985B1846885B988B1876088B9BB
:100240008BB188678BB9609166008DEF91E00E9459
:100250001605499BFECF85E090E00E94D1008EEF0D
:1002600091E00E940E05182F80EF810F803E40F430
:100270008FEF91E00E940E05181302C010936600E4
:100280001092C1001092C50080E18093C40082E00A
:100290008093C00088E18093C10086E08093C20013
:1002A00019824A9B02C01E9989B14A9906C01E99BB
:1002B00004C04F9B02C081E089834A9906C01E9BFF
:1002C00004C04F9902C082E089834A9B06C01E99F0
:1002D00004C04F9902C083E08983AE014F5F5F4F36
:1002E00061E581E00E945F0081E090E00E94D10022
:1002F00084E48093BC008091BC0087FFFCCF809198
:10030000BB0080E00E94550086E50E944B0084E817
:100310008093BC008091BC0081648093BC0084E425
:100320008093BC008091BC0087FFFCCF8091BB0014
:1003300084E88093BC008091BC0087FFFCCF809153
:10034000BB00813009F090C080E88093BC0088E158
:1003500099E00FB6F894A895809360000FBE909333
:1003600060008CEF91E00E940E0581110BC08BEFB5
:1003700091E00E940E05811105C06FEF8CEF91E0B6
:100380000E94160500E0F12CE12CAEE9DA2EB2E66F
:10039000CB2EBB24BA9413E0A12EC701011112C0C9
:1003A000009781F48CEF91E00E940E05182F8BEFDF
:1003B00091E00E940E05212F30E0322F2227820F7C
:1003C000932F911D7C01F694E7949C013695279517
:1003D00036952795AC0163E0569547956A95E1F708
:1003E000242735272827392775E0969587957A950C
:1003F000E1F7822793279927869597958827E82AFA
:10040000F92A0F5F0F3F89F46F2D8CEF91E00E9466
:1004100016056E2D8BEF91E00E94160585B1082F11
:10042000027081FF1BC0299800E0C701880F991F47
:10043000E982FA828B839C83AE014F5F5F4F61E05C
:1004400084E00E945F00D0928500C0928400B6BA1A
:10045000A0928100B09904C0A895FCCF299AE5CF5D
:10046000B09A1092810099CF80E88093BC0080E020
:1004700091E00E94A90022242394312C29E0C75C3A
:10048000DC4F2883C953D340812C912C54018E0119
:100490000F5D1C4FA8ECB0E0A50194010E9453052C
:1004A000C65CDC4F688379838A839B83CA53D340BD
:1004B000DC01CB010196A11DB11DFE013196819396
:1004C0009193A193B1930196A11DB11DE017F1077E
:1004D000B1F7240135013FEF431A530A630A730A47
:1004E000C65CDC4F88819981AA81BB81CA53D34005
:1004F00088539F4FAF4FBF4FCC5BDC4F88839983AE
:10050000AA83BB83C454D34028EC289DC001299DF5
:10051000900D1124AFEFBFE3A81BB90BC45BDC4FF8
:10052000B983A883CC54D340E8E0F0E0CE5BDC4F45
:10053000F983E883C254D340B2E0CB2ED12CE12C16
:10054000F12CA7019601C701B6010E942405CC5BDE
:10055000DC4F288139814A815B81C454D3406217C2
:100560007307840795070CF02CC1A895811491049A
:10057000A104B10409F4AFC0C65CDC4F6881798185
:100580008A819B81CA53D340A70196010E943405FA
:100590002C193D094E095F09DA01C9010196A11D17
:1005A000B11DC25CDC4F88839983AA83BB83CE5381
:1005B000D340C25CDC4F288139814A815B81CE53B4
:1005C000D3402C0D3D1D4E1D5F1DC85BDC4F2883A5
:1005D00039834A835B83C854D340A7019601C85B23
:1005E000DC4F688179818A819B81C854D3400E9405
:1005F0002405CC5BDC4F288139814A815B81C4545E
:10060000D34026173707480759070CF46DC0C85B5D
:10061000DC4F48815981C854D3404C9DF0014D9D19
:10062000F00D5C9DF00D1124C45BDC4FA881B981F5
:10063000CC54D340EA0FFB1FEE0FFF1FEE0FFF1F3E
:1006400021E030E02C0F3D1FE20FF31F10821182DA
:1006500012821382DC01CB010197A109B109C65CAA
:10066000DC4F288139814A815B81CA53D340821B88
:10067000930BA40BB50B4081518162817381452B93
:10068000462B472B09F095CFCE5BDC4F4881598133
:10069000C254D340E40FF51F883C9105A105B10574
:1006A0000CF087CFC25CDC4F288139814A815B81A5
:1006B000CE53D3402F5F3F4F4F4F5F4FC25CDC4F55
:1006C000288339834A835B83CE53D3408C0D9D1D91
:1006D000AE1DBF1DD0CFC25CDC4F188219821A82BA
:1006E0001B82CE53D34065CF3FEFC31AD30AE30A30
:1006F000F30ACE5BDC4F48815981C254D3404C5F32
:100700005F4FCE5BDC4F59834883C254D34019CF2F
:10071000E8EC2E16310409F471C0FFEF2F1A3F0ADE
:10072000C75CDC4F2881C953D340222309F449C058
:100730002A3021F488E191E00E94A90081149104FB
:10074000A104B10441F16801F12CE12C3FEFE31A5F
:10075000F30AC501B4012AE030E040E050E00E9415
:100760003405605DD6016D936D0149015A0118147D
:1007700019041A041B0454F3E00EF11EF701108251
:10078000D7018E917D010E94A2000E151F05C1F7B1
:1007900080E20E94A20080E20E94A200C75CDC4FBF
:1007A000B881C953D340B150C75CDC4FB883C9533B
:1007B000D340B11106C05AE0C75CDC4F5883C9531F
:1007C000D34088EC28163104ECF4F101EE0FFF1F42
:1007D000EE0FFF1FA1E0B0E0AC0FBD1FEA0FFB1F43
:1007E00081909190A190B19081149104A104B104E1
:1007F00009F08ECFBFEF2B1A3B0AF2CF812C912C40
:1008000054018ECF8BE191E00E94A9008091C0003D
:1008100087FD02C0A895FACF8091C600803309F405
:1008200091C08BE391E00E94A900C35DDC4F188268
:10083000CD52D340C25DDC4F1882CE52D340C15D51
:10084000DC4F1882CF52D340C05DDC4F1882C053BA
:10085000D340CF5CDC4F1882C153D340CE5CDC4F19
:100860001882C253D340CD5CDC4F1882C353D340AF
:10087000CC5CDC4F1882C453D3408091C00087FD0C
:1008800002C0A895FACF8091C60090ED980F9A30DB
:10089000A0F7C35DDC4F8883CD52D340AE01435DEA
:1008A0005C4F64E088E00E945F0088E090E00E9476
:1008B000BE008823D1F38091C6008D3019F08A30B4
:1008C00009F04FC081E090E00E94BE00811180914C
:1008D000C60084E48093BC008091BC0087FFFCCFFD
:1008E0008091BB0080E00E94550089E40E944B008B
:1008F00084E88093BC0084E48093BC008091BC00B9
:1009000087FFFCCF8091BB00412C512C320190E03D
:1009100080E024EC34E88330910509F06EC0309318
:10092000BC004091BC0047FFFCCF4091BB00440E8F
:10093000511C611C711C01968430910561F780E89F
:100940008093BC0088E191E00E94A900EAE0C75CC6
:10095000DC4FE883C953D340312C212C5301420191
:1009600099CD90ED980F9A3008F09FCFCD5CDC4F79
:100970009881C353D340CC5CDC4F9883C453D3409D
:10098000CE5CDC4F9881C253D340CD5CDC4F988362
:10099000C353D340CF5CDC4F9881C153D340CE5C6E
:1009A000DC4F9883C253D340C05DDC4F9881C05365
:1009B000D340CF5CDC4F9883C153D340C15DDC4F43
:1009C0009881CF52D340C05DDC4F9883C053D34051
:1009D000C25DDC4F9881CE52D340C15DDC4F98831D
:1009E000CF52D340C35DDC4F9881CD52D340C25D1E
:1009F000DC4F9883CE52D3404CCF2093BC00409123
:100A0000BC0047FFFCCF4091BB00440E511C611C51
:100A1000711C762C652C542C44248DCFF999FECF73
:100A200092BD81BDF89A992780B50895262FF9992E
:100A3000FECF1FBA92BD81BD20BD0FB6F894FA9AC1
:100A4000F99A0FBE01960895DB018F939F930E9440
:100A50005305BF91AF91A29F800D911DA39F900D53
:100A6000B29F900D11240895052E97FB1EF400945B
:100A70000E944B0557FD07D00E945E0507FC03D07E
:100A80004EF40C944B0550954095309521953F4F71
:100A90004F4F5F4F089590958095709561957F4F6A
:100AA0008F4F9F4F08950E948005A59F900DB49F82
:100AB000900DA49F800D911D11240895A1E21A2E7E
:100AC000AA1BBB1BFD010DC0AA1FBB1FEE1FFF1FF2
:100AD000A217B307E407F50720F0A21BB30BE40B42
:100AE000F50B661F771F881F991F1A9469F7609589
:100AF0007095809590959B01AC01BD01CF01089543
:100B0000A29FB001B39FC001A39F700D811D11244E
:100B1000911DB29F700D811D1124911D0895F894AF
:020B2000FFCF05
:100B22005072696D65206E756D62657220617272B8
:100B320061790D0A312020000D0A000D0A0D0A5AB2
:100B420065726F206F72206E6578742061727261B7
:100B520079206F7220414F4B202000092041727290
:0E0B62006179206E756D6265723F2020000083
:00000001FF
