:100000000C9494000C94BC000C94BC000C94BC00A8
:100010000C94BC000C94BC000C94BC000C94BC0070
:100020000C94BC000C94BC000C94BC000C94BC0060
:100030000C94BC000C94BC000C94BC000C94BC0050
:100040000C9405060C94BC000C9475060C944F0699
:100050000C94BC000C94BC000C94BC000C94BC0030
:100060000C94BC000C94BC0007634236B79BD8A725
:100070001A39685618AEBAAB558C1D3CB7CC5763CD
:10008000BD6DEDFD753EF6177231BF000000803F7B
:1000900008000000BE922449123EABAAAA2ABECD97
:1000A000CCCC4C3E00000080BEABAAAAAA3E000009
:1000B0000000BF000000803F000000000008417801
:1000C000D3BB4387D1133D190E3CC3BD4282AD2B38
:1000D0003E68EC8276BED98FE1A93E4C80EFFFBE30
:1000E00001C4FF7F3F00000000004E414E494E49D1
:1000F0005459494E46CDCCCC3D0AD7233C17B7D1F5
:100100003877CC2B329595E6241FB14F0A0000209A
:10011000410000C84200401C4620BCBE4CCA1B0E19
:100120005AAEC59D7400070711241FBECFEFD4E05F
:10013000DEBFCDBF23E0ACEFB2E001C01D92AF3A0D
:10014000B207E1F712E0A0E0B1E0ECE3F2E202C0B6
:1001500005900D92AC3FB107D9F710E0C4E9D0E0AB
:1001600004C02197FE010E941611C339D107C9F7B7
:100170000E9434070C941C110C940000AF92BF92A3
:10018000CF92DF92EF92FF920F931F93CF93DF9363
:100190006C017B018B01040F151FEB015E01AE1892
:1001A000BF08C017D10759F06991D601ED91FC91B4
:1001B0000190F081E02DC6010995892B79F7C501E1
:1001C000DF91CF911F910F91FF90EF90DF90CF9033
:1001D000BF90AF900895FC01538D448D252F30E0E2
:1001E000842F90E0821B930B541710F0CF96089544
:1001F00001970895FC01918D828D981761F0A28D71
:10020000AE0FBF2FB11D5D968C91928D9F5F9F7336
:10021000928F90E008958FEF9FEF0895FC01918DEC
:10022000828D981731F0828DE80FF11D858D90E059
:1002300008958FEF9FEF0895FC01918D228D892FF6
:1002400090E0805C9F4F821B91098F7399270895DE
:10025000FC01A48DA80FB92FB11DA35ABF4F2C913B
:10026000848D90E001968F739927848FA689B78932
:100270002C93A089B1898C91837080648C93938D29
:10028000848D981306C00288F389E02D80818F7DCC
:1002900080830895EF92FF920F931F93CF93DF9384
:1002A000EC0181E0888F9B8D8C8D98131AC0E889B2
:1002B000F989808185FF15C09FB7F894EE89FF8981
:1002C0006083E889F98980818370806480839FBF1F
:1002D00081E090E0DF91CF911F910F91FF90EF901F
:1002E0000895F62E0B8D10E00F5F1F4F0F7311272F
:1002F000E02E8C8D8E110CC00FB607FCFACFE8896A
:10030000F989808185FFF5CFCE010E942801F1CFC8
:10031000EB8DEC0FFD2FF11DE35AFF4FF0829FB7DD
:10032000F8940B8FEA89FB8980818062CFCF682F98
:1003300080E193E00C944A01CF93DF93EC01888D28
:100340008823B9F0AA89BB89E889F9898C9185FD50
:1003500003C0808186FD0DC00FB607FCF7CF8C91DE
:1003600085FFF2CF808185FFEDCFCE010E9428016D
:10037000E9CFDF91CF91089584E88093BC0080910C
:10038000BC0087FFFCCF8091BB0008958093BB0029
:1003900084E88093BC008091BC0087FFFCCF089567
:1003A0008093BB0084EC8093BC008091BC0087FFED
:1003B000FCCF0895CF92DF92EF92FF920F931F939D
:1003C000CF93DF93C82F062F142FD52F84E480936B
:1003D000BC008091BC0087FD02C0A895FACF809137
:1003E000BB008C2F0E94D001802F0E94D001E12EF3
:1003F000FD2E10E000E00C2E000CDD0B6E0181E004
:10040000C81AD1080C171D0774F4F70181917F01F8
:10041000C016D10629F40E94C6010F5F1F4FF2CF0C
:100420000E94D001FACF80E88093BC00DF91CF9189
:100430001F910F91FF90EF90DF90CF90089580E192
:1004400093E00E941C01892B11F4A895F8CF80E15C
:1004500093E00E94FA00089530E020E042EB55E07E
:1004600046BD55BDA89BFECFA89A15BCA8952F5F89
:100470003F4F82179307A1F70895FC0101900020D8
:10048000E9F73197AF01481B590BBC0180E193E0BC
:100490000C94BE00009711F00C943D0290E080E0B7
:1004A00008958F929F92AF92BF920F931F93CF9315
:1004B000DF93CDB7DEB7A1970FB6F894DEBF0FBEBE
:1004C000CDBF19A2423008F44AE08E010F5D1F4FE4
:1004D000842E912CB12CA12CA50194010E94C11055
:1004E000E62FB901CA01EA30D4F4E05DD801EE93F9
:1004F0008D01232B242B252B79F7CD010E944A0255
:10050000A1960FB6F894DEBF0FBECDBFDF91CF919D
:100510001F910F91BF90AF909F908F900895E95CCD
:10052000E5CFCF93DF93EA012AE00E94BB0ACE0118
:100530000E944A0260E280E193E0DF91CF910C9447
:100540004A012F923F924F925F926F927F928F92C9
:100550009F92AF92BF92CF92DF92EF92FF920F9352
:100560001F93CF93DF93CDB7DEB760970FB6F894A4
:10057000DEBF0FBECDBF6B017C01342E222E088B57
:10058000DC01CB01009720E8A2072FE7B207A1F416
:1005900082E191E00E944A0260E08AEF91E00E94CD
:1005A000B10D88E199E00FB6F894A89580936000AA
:1005B0000FBE90936000FFCF0097E0E8AE07EFEF2B
:1005C000BE07A1F486E291E00E944A0260E08AEF51
:1005D00091E00E94B10D88E199E00FB6F894A895DA
:1005E000809360000FBE90936000FFCF0097A1053D
:1005F000B105A1F48AE391E00E944A0260E08AEF2B
:1006000091E00E94B10D88E199E00FB6F894A895A9
:10061000809360000FBE90936000FFCF0097A1050C
:10062000B048A1F48EE491E00E944A0260E08AEFB3
:1006300091E00E94B10D88E199E00FB6F894A89579
:10064000809360000FBE90936000FFCF20E030E009
:10065000A901C7010E94820C87FF1AC0F7FAF09423
:10066000F7F8F0942DE22D8761E070E080E090E0F3
:10067000332089F0E32D61E070E080E090E0E1500C
:1006800050F0AAE0B0E09B01AC010E94BF0DF7CF93
:100690008BE28D87E9CF0E94890C4B015C01A70199
:1006A00096010E94820C10E000E018160CF4A3C022
:1006B00020E030E040E251E4C701B6010E947D0E27
:1006C0006B017C010F5F1F4FAC019B01C501B401A1
:1006D0000E94820C181664F782E691E00E944A029A
:1006E0009D859D3221F4F7FAF094F7F8F094E22D0D
:1006F000220CFF0BFF87EE87A7019601C701B60109
:100700000E94730F882309F48EC085E691E00E9451
:100710003D0201151105E9F085E490E00E94970182
:100720004801012E000CAA08BB084AE0C501B4012B
:10073000B7FE0DC06DE280E193E00E944A0166279A
:100740007727CB01681979098A099B094AE00E9439
:10075000510289E090E00E94970146015701B7FEDF
:1007600002C0E894B7F8D501C401F7E1B595A795A3
:1007700097958795FA95D1F77C01EFE7EE1AF10886
:10078000F1E8EF16FFEFFF0609F4EFC02FEFE21AD2
:10079000F20AE7E0880C991CAA1CBB1CEA95D1F769
:1007A00080E888228FE3B8226894B6F8AE014F5FE4
:1007B0005F4FC501B4010E949102B7016F517109E9
:1007C000072E000C880B990BAE014F5F5F4F0E9404
:1007D000910289E090E00E9497018FE190E08E19EC
:1007E0009F098F3191050CF4D6C00197B594A79459
:1007F00097948794F6CF20E030E040E251E4C701BF
:10080000B6010E94E80C2B013C019B01AC01C50123
:10081000B4010E941E0F18160CF05ECF0150110992
:1008200062017301E8CF46015701E894B7F82FEF52
:100830003FEF4FE75FE7C501B4010E94730F8111DD
:100840000DC02FEF3FEF4FE75FE7C501B4010E94F6
:10085000820C18161CF489E691E059CF2FEF3FEF78
:100860004FE75FE4C701B6010E941E0F18161CF483
:100870008DE691E04CCF2FEF3FEF4FE75FECC701E4
:10088000B6010E94820C87FDF3CF20E030E0A90181
:10089000C701B6010E94820C4601570187FF09C0BB
:1008A0006DE280E193E00E944A01B7FAB094B7F894
:1008B000B094FE85FE5FFD87712C60E070E080E003
:1008C0009FE32D85721640F420E030E040E251E4D1
:1008D0000E947D0E7394F5CFA50194010E94110E24
:1008E0004B015C010E94EF0E2B013C014AE00E948B
:1008F00051028D85882309F40CCFC301B2010E94F7
:10090000870C9B01AC01C501B4010E94100E4B0184
:100910005C016EE280E193E00E944A01212C8D850A
:10092000820D09F4F6CE20E030E040E251E4C5014A
:10093000B4010E94E80C2B013C010E94EF0E4B0118
:10094000B12CA12C4AE0C501B4010E945102C5019D
:10095000B4010E94870C9B01AC01C301B2010E944B
:10096000100E4B015C012A94DACF81149104A1048A
:10097000B10409F41BCF90E080E0B6FC06C0880CFF
:10098000991CAA1CBB1C0196F8CF2AE83FEF7901FD
:10099000E81AF90A0BCF30E020E0412C512C32014B
:1009A0004394281739073CF4440C551C661C771CEB
:1009B0002F5F3F4FF6CFC501B401A30192010E9402
:1009C000E31069017A01962E872E8D87292E2AE061
:1009D000AE014F5F5F4FC701B6010E94BB0AB12C49
:1009E000E1E0F0E0EC0FFD1FEB0DF11DB7FCFA9517
:1009F000A080AA2011F0B394F3CFCD28CE28CF2821
:100A000009F47CC0C92CD82CED84F22C912C812CBB
:100A1000EE85FF85E815F905D4F1F9E0BF16B9F1C7
:100A20002CECC216D206E2062CE0F206ACF0C701AE
:100A3000B6012AE030E040E050E00E94E310690196
:100A40007A01C301B2012AE030E040E050E00E94A8
:100A5000E31029013A01E4CFAAE0B0E0A701960132
:100A60000E94BF0DA30192010E94E310E1E0F0E0BB
:100A7000EC0FFD1FEB0DF11DB7FCFA95205D2083F7
:100A8000B394EFEF8E1A9E0A6B017C01C1CFE1E0B7
:100A9000F0E0EC0FFD1FEB0DF11DB7FCFA95108295
:100AA000CE0101960E94940AFE0131969E01235FB9
:100AB0003F4F11922E173F07E1F76A5F7F4F8F4F2D
:100AC0009F4F2AE0AE014F5F5F4F0E94BB0AE1E0FB
:100AD000F0E0EC0FFD1FEA0DF11DA7FCFA958081F7
:100AE000882311F0A394F3CFAA94E1E0F0E0EC0F97
:100AF000FD1FEA0DF11DA7FCFA95108288858093F1
:100B000008038F81809309038E8180930A038D816E
:100B100080930B038C8180930C038B8180930D0356
:100B20008A8180930E03898180930F03E8E0F3E0CC
:100B300087E090E08319910937FC93959F01285035
:100B40003340281739071CF421812193F7CF885FA0
:100B50009C4F2EE2FC012083F889F03311F0F93725
:100B600061F410161106B4F585E40A30110524F578
:100B700080930903005D0093080348E053E064E0BC
:100B800088E00E94DA0160960FB6F894DEBF0FBECF
:100B9000CDBFDF91CF911F910F91FF90EF90DF902C
:100BA000CF90BF90AF909F908F907F906F905F900D
:100BB0004F903F902F90089580930A03C8016AE0F8
:100BC00070E00E94AD10805D80930803605D6093CB
:100BD0000903D3CF0115110581F288279927801BBE
:100BE000910B073F1F4F54F095E490930A039DE249
:100BF00090930903805D80930803BFCF25E4209381
:100C00000B032DE220930A03DACF1F920F920FB647
:100C10000F9211242F933F938F939F93AF93BF9382
:100C20008091040390910503A0910603B0910703FE
:100C30003091030323E0230F2D3758F50196A11DB2
:100C4000B11D209303038093040390930503A093A5
:100C50000603B09307038091FF0290910003A091D7
:100C60000103B09102030196A11DB11D8093FF0203
:100C700090930003A0930103B0930203BF91AF913F
:100C80009F918F913F912F910F900FBE0F901F90CA
:100C9000189526E8230F0296A11DB11DD2CF1F92F1
:100CA0000F920FB60F9211242F933F934F935F93A0
:100CB0006F937F938F939F93AF93BF93EF93FF9324
:100CC00080E193E00E942801FF91EF91BF91AF91E5
:100CD0009F918F917F916F915F914F913F912F9154
:100CE0000F900FBE0F901F9018951F920F920FB686
:100CF0000F9211242F938F939F93EF93FF93E09183
:100D00002003F09121038081E0912603F0912703D5
:100D100082FD1BC09081809129038F5F8F7320918A
:100D20002A03821741F0E0912903F0E0E05FFC4FD5
:100D3000958F80932903FF91EF919F918F912F9130
:100D40000F900FBE0F901F9018958081F4CF84EC08
:100D50008093BC008091BC0087FFFCCF8091BB00DA
:100D60000895CF92DF92EF92FF920F931F93CF934C
:100D7000DF9300D0CDB7DEB789831A82AE014F5F13
:100D80005F4F60E581E00E94DA0184E48093BC005B
:100D90008091BC0087FD02C0A895FACF8091BB006E
:100DA0000E94A706182F0E94A706105300ED080FF7
:100DB0008AE0189F000D1124F12CE12C002E000C6C
:100DC000110B680181E0C81AD108E016F1068CF415
:100DD000CE14DF0459F40E94BC01082E000C990BBC
:100DE0000E9497018FEFE81AF80AEFCF0E94A7063A
:100DF000F4CF80E88093BC000F900F90DF91CF91EB
:100E00001F910F91FF90EF90DF90CF900895E0E158
:100E1000F3E01382128288EE93E0A0E0B0E08483D6
:100E20009583A683B78384E091E09183808385ECEA
:100E300090E09587848784EC90E09787868780ECA4
:100E400090E0918B808B81EC90E0938B828B82EC95
:100E500090E0958B848B86EC90E0978B868B118E3F
:100E6000128E138E148E0895CF93DF93CDB7DEB715
:100E70002E970FB6F894DEBF0FBECDBF04B603FEAB
:100E800003C082E08093FE0204B600FE03C081E04E
:100E90008093FE0204B601FE03C083E08093FE024D
:100EA0008091FE02823049F48AEF91E00E94A90D00
:100EB000811103C084E08093FE028091FE028230A3
:100EC00049F48AEF91E00E94A90D813019F485E080
:100ED0008093FE026FEF8AEF91E00E94B10D14BE85
:100EE000A8958FB78093FD02F89480916000886187
:100EF000809360001092600014BE8091FD028FBF4D
:100F000082E08093BA0080917C00806480937C00B2
:100F100085B78F7E85BF8AB18B778AB98BB184689C
:100F20008BB926982E9A83E084B985B78F7E85BFCA
:100F300084B18B7784B987B1887F87B98AB1877884
:100F40008AB985B1846885B988B1876088B98BB161
:100F500088678BB9609166008DEF91E00E94B10DBA
:100F6000499BFECF85E090E00E942C028EEF91E03D
:100F70000E94A90D182F80EF810F803E40F48FEF63
:100F800091E00E94A90D181302C010936600E09131
:100F90002003F091210382E08083E0911C03F09113
:100FA0001D031082E0911E03F0911F0380E18083F6
:100FB00010922803E0912403F091250386E08083BA
:100FC000E0912203F0912303808180618083E0918E
:100FD0002203F0912303808188608083E0912203C3
:100FE000F0912303808180688083E0912203F09157
:100FF000230380818F7D8083789419824A9B02C06D
:101000001E9989B14A9906C01E9904C04F9B02C01F
:1010100081E089834A9906C01E9B04C04F9902C093
:1010200082E089834A9B06C01E9904C04F9902C082
:1010300083E08983AE014F5F5F4F61E581E00E94ED
:10104000DA0181E090E00E942C0284E48093BC00ED
:101050008091BC0087FD02C0A895FACF8091BB00AB
:1010600080E00E94D00186E50E94C60184E880935A
:10107000BC008091BC0081648093BC0084E48093B8
:10108000BC008091BC0087FD02C0A895FACF80917A
:10109000BB000E94BC01813009F0A0C180E88093B0
:1010A000BC0081E791E00E944A020E941F02823345
:1010B00009F460C10CF0CBC0813309F457C18091B1
:1010C000FE02823009F494C10CF08CC1813009F425
:1010D000B3C180E3809308038093090380930A03DC
:1010E00080930B0380930C0380930D0380930E0376
:1010F00080930F0348E053E064E088E00E94DA0147
:1011000083E291E00E944A0280E193E00E949C0108
:10111000CE0101967C0110E000E02FB7F894809199
:10112000040390910503A0910603B09107032FBF1C
:101130008093180390931903A0931A03B0931B0391
:1011400080E193E00E94FA0097FFDCC12FB7F8948A
:101150008091040390910503A0910603B0910703C9
:101160002FBF409118035091190360911A03709199
:101170001B03841B950BA60BB70B409114035091D6
:101180001503609116037091170384179507A6073E
:10119000B707B0F2E1E0F0E0EC0FFD1FE00FF11F48
:1011A0001082CE0101960E94900A6B017C0100E33F
:1011B00026E041E00E94A10285EE92E00E944A02F0
:1011C0000E941F0290EDB92EB80E8B2D0B2C000C37
:1011D000990BC0960E9497010E941F0220EDA22E3B
:1011E000A80E8A2D0A2C000C990BC0960E9497011C
:1011F00010E331E6932E83E291E00E944A029D863D
:101200001E86AE01435F5F4F62E082E00E94DA011A
:10121000012F2A2D4B2DC701B6010E94A1020E9469
:101220001F02833309F443C10CF028C1813309F450
:1012300035C1823301F7A701960160E070E080E8D4
:101240009FE30E947D0E6B017C0110E3D4CF8333BA
:1012500009F492C0843309F032CF88E199E00FB6E7
:10126000F894A895809360000FBE909360008CEF77
:1012700091E00E94A90D81110BC08BEF91E00E94BB
:10128000A90D811105C06FEF8CEF91E00E94B10DA7
:10129000F12C10E000E08EE9E82E92E6D92ECC2465
:1012A000CA9423E0B22EC801F11012C0009781F455
:1012B0008CEF91E00E94A90D182F8BEF91E00E9416
:1012C000A90D212F30E0322F2227820F932F911D5D
:1012D0008C01169507959C0136952795369527958F
:1012E000AC01E3E056954795EA95E1F724273527C9
:1012F00028273927F5E096958795FA95E1F7822713
:1013000093279927869597958827082B192BF3946F
:101310008FEFF81212C0612F8CEF91E00E94B10D97
:10132000602F8BEF91E00E94B10D85B1982F9270E4
:10133000F92E81FF4DC02998F12CC801880F991F03
:1013400009831A838B839C83AE014F5F5F4F61E0FB
:1013500084E00E94DA01E0928500D0928400C6BA4F
:10136000B0928100B09936C0A895FCCF80E30E946E
:10137000B106A5CE81E3FBCF1092FC0234E4F32E3C
:1013800000E8F092BC008091BC0087FD02C0A895E7
:10139000FACF8091BB0080E00E94D00188E40E94D7
:1013A000C6010093BC00F092BC008091BC0087FD98
:1013B00002C0A895FACF8091BB000E94A70688239F
:1013C00009F47EC0082E000C990B0E949701F5CFFE
:1013D000299AB3CFB09A1092810065CF80E88093AC
:1013E000BC006DCE833009F48AC0843009F071CE20
:1013F0008EE2809308038093090380930A0380930D
:101400000B0380930C0380930D0380930E03809352
:101410000F0348E053E064E088E00E94DA018CEBBF
:1014200092E00E944A020E941F028837E1F782ED93
:1014300092E00E944A024DCE85EE91E00E944A025F
:1014400010E000E042E3E42EF12C80E193E00E9402
:101450001C01892B09F047C00F5F1F4FA89501346D
:10146000EFE11E072CF0F1E0EF1AF10810E000E0C8
:10147000E114F10451F7E0CF18E7BDCE8837E1F071
:10148000893709F0B8CE88E199E00FB6F894A895AD
:10149000809360000FBE90936000FFCF20E030E0AB
:1014A00040EA5FE3C701B6010E94230FCCCE20E0E3
:1014B00030E040E05FE3F6CF1837F1F619E79BCE56
:1014C0000E94BC010093BC0083E291E00E944A02AA
:1014D0001091FC021F5F1093FC020E941F02133048
:1014E0000CF44FCFECCD80E193E00E94FA008F7DA9
:1014F000823509F0A1CF83E291E00E944A028CEE8E
:1015000091E097CF8D30910509F444CEF701819396
:101510007F010F5F1F4F0C30110509F0FECD3ACE51
:10152000662777270C94010B1F93FC0199278827C6
:10153000BC01E89411911032E9F3193010F01E301B
:10154000C8F31B3251F01D3249F4689406C00E9462
:10155000CA0A610F711D811D911D119110531A301E
:10156000B0F33EF490958095709561957F4F8F4FC5
:101570009F4F1F910895BB272A3051F4992342F4BD
:10158000BDE290958095709561957F4F8F4F9F4FED
:101590000C94E00A592F482F372F262F660F771FFC
:1015A000881F991F660F771F881F991F620F731F6F
:1015B000841F951F660F771F881F991F0895BB27EB
:1015C000FA01A62F6217710581059105330B30FBD7
:1015D00066F0AA27660F771F881F991FAA1FA217F8
:1015E00010F0A21B63953850A9F7A05DAA3308F04C
:1015F000A95DA19336F7B111B1931082CA010C9481
:10160000720CB0E0A0E0E7E0FBE00C94D00D5C01D0
:101610007B016115710519F0DB018D939C938501A8
:101620000F5F1F4FF501D0818D2F90E00E94510C6C
:101630006C01892BB9F5DD32B9F50F5F1F4FD5016C
:101640001196DC91C1E05801F1E0AF1AB10843E016
:1016500050E062EF70E0C5010E945A0C892B69F5D9
:10166000680182E0C80ED11C45E050E06DEE70E0EC
:10167000C6010E945A0C892B21F4680197E0C90E1B
:10168000D11CE114F10419F0D701CD92DC9260E095
:1016900070E080E89FEFC111FFC060E070E080E87B
:1016A0009FE7FAC05801BBCFDB3229F485010E5FFA
:1016B0001F4FF501D181C0E0C6CF43E050E06AEE94
:1016C00070E0C5010E945A0C892BE9F0F80110E086
:1016D00000E020E030E0A9015F01B0ED8B2E8D0E1F
:1016E00089E08815C8F19C2E689491F88C2F887039
:1016F000C2FF16C0811102C00F5F1F4F3196D50186
:10170000DC91C92DE9CFE114F10429F00E5F1F4FE0
:10171000F7011183008360E070E080EC9FE7BCC0BC
:10172000882311F001501109A5E0B0E00E94BF0D1F
:101730009B01AC01220F331F441F551F280D311D83
:10174000411D511D283999E93907490799E1590780
:10175000A8F2C6609C2ED2CFAEEF8A1206C0C3FD9F
:101760003CC09C2E689493F8C9CFDF7DD534A9F591
:1017700080818D3239F4C061DF011296818162E08F
:1017800070E006C0DF018B32C1F3119661E070E0BA
:1017900080535D01A61AB70A8A30F8F4E0E8CE1645
:1017A000ECE0DE065CF4B601660F771F660F771F6C
:1017B000C60ED71ECC0CDD1CC80ED11C5D01FFEF80
:1017C000AF1ABF0A8C9180538A30A8F1C4FF03C0BE
:1017D000D194C194D1080C0D1D1DC1FF09C0E114A5
:1017E000F10431F081E0A81AB108D701AD92BC92A2
:1017F000CA01B9010E94870CC370C33009F4905824
:101800004B015C0120E030E0A9010E94820C88239A
:1018100009F440C0C1E2D1E017FF05C01195019560
:101820001109C9E0D1E06E01B8E1CB1AD10880E21C
:10183000E82EF12C0FC0D501B1CFFE0125913591D5
:10184000459154910E191F09C501B4010E94E80C7D
:101850004B015C01D501C4010E151F0574F72497D7
:10186000F594E794CC16DD06A9F78A2F880F8B2F05
:10187000881F8F3F49F020E030E0A901C501B40185
:101880000E94820C811106C082E290E09093AE0328
:101890008093AD03C501B401CDB7DEB7ECE00C9485
:1018A000EC0D91110C94550D803219F08950855032
:1018B000C8F70895FB01DC014150504088F08D913C
:1018C00081341CF08B350CF4805E659161341CF022
:1018D0006B350CF4605E861B611171F3990B0895F2
:1018E000881BFCCFDC01FC01672F71917723E1F7A6
:1018F000329704C07C916D9370836291AE17BF07DD
:10190000C8F308950E94C40C08F481E00895E89497
:1019100009C097FB3EF490958095709561957F4F37
:101920008F4F9F4F9923A9F0F92F96E9BB279395E5
:10193000F695879577956795B795F111F8CFFAF4F5
:10194000BB0F11F460FF1BC06F5F7F4F8F4F9F4F26
:1019500016C0882311F096E911C0772321F09EE884
:10196000872F762F05C0662371F096E8862F70E0EA
:1019700060E02AF09A95660F771F881FDAF7880FC4
:101980009695879597F90895990F0008550FAA0B1A
:10199000E0E8FEEF16161706E807F907C0F0121682
:1019A0001306E407F50798F0621B730B840B950B85
:1019B00039F40A2661F0232B242B252B21F40895DA
:1019C0000A2609F4A140A6958FEF811D811D089577
:1019D0000E94FB0C0C946F0D0E94610D38F00E9468
:1019E000680D20F0952311F00C94580D0C945E0DA9
:1019F00011240C94A30D0E94800D70F3959FC1F3E8
:101A0000950F50E0551F629FF001729FBB27F00DAC
:101A1000B11D639FAA27F00DB11DAA1F649F662701
:101A2000B00DA11D661F829F2227B00DA11D621F50
:101A3000739FB00DA11D621F839FA00D611D221F0A
:101A4000749F3327A00D611D231F849F600D211DEE
:101A5000822F762F6A2F11249F5750409AF0F1F071
:101A600088234AF0EE0FFF1FBB1F661F771F881FDA
:101A700091505040A9F79E3F510580F00C94580DAD
:101A80000C94A30D5F3FE4F3983ED4F386957795CD
:101A90006795B795F795E7959F5FC1F7FE2B880F80
:101AA000911D9695879597F9089599278827089508
:101AB00097F99F6780E870E060E008959FEF80EC01
:101AC000089500240A9416161706180609060895A4
:101AD00000240A9412161306140605060895092E0A
:101AE0000394000C11F4882352F0BB0F40F4BF2B79
:101AF00011F460FF04C06F5F7F4F8F4F9F4F0895B9
:101B000057FD9058440F551F59F05F3F71F04795AE
:101B1000880F97FB991F61F09F3F79F08795089593
:101B2000121613061406551FF2CF4695F1DF08C0B2
:101B3000161617061806991FF1CF869571056105CF
:101B400008940895E894BB2766277727CB0197F977
:101B50000895F999FECF92BD81BDF89A992780B575
:101B60000895262FF999FECF1FBA92BD81BD20BDE1
:101B70000FB6F894FA9AF99A0FBE019608950E944A
:101B8000010EA59F900DB49F900DA49F800D911DF7
:101B9000112408952F923F924F925F926F927F92FD
:101BA0008F929F92AF92BF92CF92DF92EF92FF926D
:101BB0000F931F93CF93DF93CDB7DEB7CA1BDB0B19
:101BC0000FB6F894DEBF0FBECDBF09942A883988BE
:101BD00048885F846E847D848C849B84AA84B984C5
:101BE000C884DF80EE80FD800C811B81AA81B981D1
:101BF000CE0FD11D0FB6F894DEBF0FBECDBFED01E5
:101C00000895A29FB001B39FC001A39F700D811DD5
:101C10001124911DB29F700D811D1124911D0895F5
:101C20005058BB27AA270E94280E0C946F0D0E94C3
:101C3000610D38F00E94680D20F039F49F3F19F4CF
:101C400026F40C945E0D0EF4E095E7FB0C94580D11
:101C5000E92F0E94800D58F3BA17620773078407B3
:101C6000950720F079F4A6F50C94A20D0EF4E095FA
:101C70000B2EBA2FA02D0B01B90190010C01CA0146
:101C8000A0011124FF27591B99F0593F50F4503EF1
:101C900068F11A16F040A22F232F342F4427585FE3
:101CA000F3CF469537952795A795F0405395C9F7FB
:101CB0007EF41F16BA0B620B730B840BBAF09150B3
:101CC000A1F0FF0FBB1F661F771F881FC2F70EC052
:101CD000BA0F621F731F841F48F487957795679525
:101CE000B795F7959E3F08F0B0CF9395880F08F011
:101CF0009927EE0F9795879508950E94910E0C9461
:101D00006F0D0E94680D58F00E94610D40F029F49B
:101D10005F3F29F00C94580D51110C94A30D0C94B5
:101D20005E0D0E94800D68F39923B1F3552391F362
:101D3000951B550BBB27AA2762177307840738F03A
:101D40009F5F5F4F220F331F441FAA1FA9F335D097
:101D50000E2E3AF0E0E832D091505040E695001C4B
:101D6000CAF72BD0FE2F29D0660F771F881FBB1F05
:101D7000261737074807AB07B0E809F0BB0B802DE3
:101D8000BF01FF2793585F4F3AF09E3F510578F00F
:101D90000C94580D0C94A30D5F3FE4F3983ED4F3DC
:101DA000869577956795B795F7959F5FC9F7880FE3
:101DB000911D9695879597F90895E1E0660F771F35
:101DC000881FBB1F621773078407BA0720F0621BC6
:101DD000730B840BBA0BEE1F88F7E09508950E94F1
:101DE000880D88F09F5798F0B92F9927B751B0F018
:101DF000E1F0660F771F881F991F1AF0BA95C9F78F
:101E000014C0B13091F00E94A20DB1E008950C947D
:101E1000A20D672F782F8827B85F39F0B93FCCF330
:101E2000869577956795B395D9F73EF4909580950B
:101E3000709561957F4F8F4F9F4F08950E94C40CFE
:101E400008F48FEF0895FA01EE0FFF1F3096210579
:101E50003105A1F16115710561F48038BFE39B077D
:101E600049F168949038810561F08038BFEF9B0795
:101E700041F099234AF5FF3FE1053105210519F1AC
:101E8000E8940894E795D901AA2329F4AB2FBE2F33
:101E9000F85FD0F310C0FF5F70F4A695E0F7F73954
:101EA00050F019F0FF3A38F49F779F930DD00F90C0
:101EB00007FC9058089546F00C945E0D60E070E0C9
:101EC00080E89FE308954FE79F775F934F933F9399
:101ED0002F930E9423102F913F914F915F910E9469
:101EE000E80C0C94800F0E94C40C880B990B089589
:101EF00029F416F00C94580D0C94A20D0C945E0D60
:101F00000E94880DA8F39638A0F707F80F92E8947E
:101F10002BE33AEA48EB5FE70E94FE0C0F920F9228
:101F20000F924DB75EB70F920E946B10E8E6F0E09B
:101F30000E94B20F4F915F91EF91FF91E595EE1FD7
:101F4000FF1F49F0FE57E0684427EE0F441FFA9543
:101F5000E1F74195550B0E94E50F0F9007FE0C9499
:101F6000D90F0895DF93CF931F930F93FF92EF92B2
:101F7000DF927B018C01689406C0DA2EEF010E948B
:101F8000FB0CFE01E894A591259135914591559161
:101F9000A6F3EF010E94280EFE019701A801DA9432
:101FA00069F7DF90EF90FF900F911F91CF91DF9134
:101FB00008959B01AC0160E070E080E89FE30C9421
:101FC0007D0E0C94580D0C949F100E94880DD8F330
:101FD0009923C9F3940F511DA3F39150504094F0ED
:101FE00059F0882332F0660F771F881F91505040B8
:101FF000C1F79E3F51052CF7880F911D9695879547
:1020000097F908955F3FACF0983E9CF0BB2786950A
:1020100077956795B79508F4B1609395C1F7BB0FB5
:1020200058F711F460FFE8CF6F5F7F4F8F4F9F4FDE
:10203000E3CF0C94A30D16F00C949F100C945E0D3E
:1020400068940C94580D0E94880DA8F39923C1F34D
:10205000AEF3DF93CF931F930F93FF92C92FDD272A
:1020600088232AF02197660F771F881FDAF720E070
:1020700030E040E85FEB9FE3883920F0803E38F0A5
:1020800021968F770E94110EE0E9F0E004C00E94D3
:10209000110EEDEBF0E00E94B20F8B01BE01EC01DE
:1020A000FB2E6F5771097595771F880B990B0E944E
:1020B000890C28E132E741E35FE30E94FB0CAF2D7E
:1020C0009801AE01FF900F911F91CF91DF910E9477
:1020D000280E0C946F0DFA01DC01AA0FBB1F9B01A7
:1020E000AC01BF5728F4222733274427507820C05B
:1020F000B75190F4AB2F0024469537952795011CD6
:10210000A395D2F3002071F0220F331F441FB39523
:10211000DAF30ED00C94100E61307105A0E88A0736
:10212000B94630F49B01AC01662777278827907861
:10213000309621F0208331834283538308959F3F5B
:1021400031F0915020F4879577956795B795880F72
:10215000911D9695879597F9089597FB072E16F48C
:10216000009407D077FD09D00E94021107FC05D02A
:102170003EF4909581959F4F0895709561957F4F9E
:102180000895A1E21A2EAA1BBB1BFD010DC0AA1FB8
:10219000BB1FEE1FFF1FA217B307E407F50720F0D0
:1021A000A21BB30BE40BF50B661F771F881F991F4B
:1021B0001A9469F760957095809590959B01AC0194
:1021C000BD01CF010895052E97FB1EF400940E94D7
:1021D000FA1057FD07D00E94C11007FC03D04EF43F
:1021E0000C94FA1050954095309521953F4F4F4FE4
:1021F0005F4F089590958095709561957F4F8F4FB3
:102200009F4F0895AA1BBB1B51E107C0AA1FBB1F0C
:10221000A617B70710F0A61BB70B881F991F5A9572
:10222000A9F780959095BC01CD010895EE0FFF1F91
:0C2230000590F491E02D0994F894FFCF84
:10223C00000000004A01BE00EB009C011C01FA00EA
:10224C000E012B7665204E756D20746F6F206C61BE
:10225C007267650D0A002D7665204E756D20746FC2
:10226C006F206C617267650D0A002B7665204E75C8
:10227C006D20746F6F20736D616C6C0D0A002D7680
:10228C0065204E756D20746F6F20736D616C6C0DD5
:10229C000A000941006E616E00696E66006F766619
:1022AC00000D0A50726573730D0A3120666F72202F
:1022BC004F532076657273696F6E0D0A3220666F0C
:1022CC00722073797374656D20646174610D0A33C7
:1022DC00204D6573736167652066726F6D2074683D
:1022EC0065204F5320287820746F206573636170CC
:1022FC0065290D0A342044656661756C7420707212
:10230C006F6A6563740D0A3020746F2065736361A6
:10231C0070650D0A00523F20202020000D0A0D0A86
:10232C005573696E672041726475696E6F206675AE
:10233C006E6374696F6E7320746F20726563656968
:10234C00766520616E64207072696E7420736369A7
:10235C00656E7469666963206E756D626572732E45
:10236C000D0A0D0A456E74657220736369656E748F
:10237C0069666963206E756D6265720D0A746865B5
:10238C006E20746865206E756D626572206F6620B4
:10239C00646967697473206265666F726520616E2B
:1023AC006420616674657220746865206465636975
:1023BC006D616C20706F696E742E0D0A5468656EB9
:1023CC0020707265737320414B20746F2067656EAB
:1023DC006572617465206120736572696573206F25
:1023EC0066206E756D626572732E0900507265738E
:1023FC00732027782720746F20636F6E74696E7555
:10240C0065000D0A456E746572206E6577206461F7
:10241C0074613F0900097072652F706F73742064CA
:0C242C0070206469676974733F09000048
:00000001FF
